:100000000C9471000C9499000C9499000C94990034
:100010000C9499000C9499000C9499000C949900FC
:100020000C9499000C9499000C9499000C9437044A
:100030000C9499000C9499000C9499000C949900DC
:100040000C9495030C9499000C9405040C94DF0314
:100050000C9499000C9499000C9499000C949900BC
:100060000C9499000C94990005A84CCDB2D44EB9CB
:100070003836A9020C50B9918688083CA6AAAA2A4B
:10008000BE000000803F00000000240027002A007E
:1000900000000000250028002B00000000002300C5
:1000A00026002900040404040404040402020202D9
:1000B000020203030303030301020408102040802B
:1000C00001020408102001020408102000000008AA
:1000D000000201000003040700000000000000000F
:1000E000150911241FBECFEFD8E0DEBFCDBF11E050
:1000F000A0E0B1E0E8E4FAE102C005900D92AA3276
:10010000B107D9F722E0AAE2B1E001C01D92AA30FE
:10011000B207E1F710E0C1E7D0E004C02197FE018B
:100120000E941C0DC037D107C9F70E94C8040C9467
:10013000220D0C9400008E3008F08E508770806481
:1001400080937C0080917A00806480937A00809113
:100150007A0086FDFCCF8091780090917900089517
:10016000833081F028F4813099F08230A9F008952D
:100170008730A9F08830C9F08430B1F480918000D4
:100180008F7D03C0809180008F77809380000895D9
:1001900084B58F7784BD089584B58F7DFBCF809122
:1001A000B0008F778093B00008958091B0008F7D6C
:1001B000F9CFCF93DF93E8EDF0E08491E4ECF0E049
:1001C000D491E0EBF0E0C491CC23A1F081110E9426
:1001D000B000EC2FF0E0EE0FFF1FE656FF4FA591A9
:1001E000B491EC91ED2381E090E009F480E0DF919F
:1001F000CF91089580E090E0FACF1F93CF93DF93E3
:10020000282F30E0F901E453FF4F8491F901E854BD
:10021000FF4FD491F901EC55FF4FC491CC23A9F0C5
:10022000162F81110E94B000EC2FF0E0EE0FFF1F9F
:10023000E057FF4FA591B4918FB7F894EC9111114D
:1002400008C0D095DE23DC938FBFDF91CF911F9143
:100250000895DE2BF8CFCF93DF9390E0FC01E854B4
:10026000FF4F24918C559F4FFC0184918823C9F046
:1002700090E0880F991FFC01EA57FF4FA591B491B8
:10028000FC01E057FF4FC591D49161110DC09FB79C
:10029000F8948C91209582238C938881282328833D
:1002A0009FBFDF91CF910895623051F49FB7F894CA
:1002B0003C91822F809583238C93E8812E2BEFCF66
:1002C0008FB7F894EC912E2B2C938FBFEACF1F930E
:1002D000CF93DF93182FEB0161E00E942B01209751
:1002E00039F460E0812FDF91CF911F910C94FD00D4
:1002F000CF3FD10511F461E0F5CFE12FF0E0E453F9
:10030000FF4FE491E33031F140F4E130B1F0E230FD
:10031000E1F0C038D1057CF7E4CFE73029F1E830CF
:1003200059F1E430B1F780918000806280938000C1
:10033000D0938B00C0938A0004C084B5806884BDCC
:10034000C7BDDF91CF911F91089584B5806284BDB0
:10035000C8BDF7CF80918000806880938000D093E3
:100360008900C0938800EDCF8091B00080688093B1
:10037000B000C093B300E5CF8091B000806280935D
:10038000B000C093B400DDCFFC01538D448D252F08
:1003900030E0842F90E0821B930B541710F0CF961F
:1003A000089501970895FC01918D828D981761F051
:1003B000A28DAE0FBF2FB11D5D968C91928D9F5F68
:1003C0009F73928F90E008958FEF9FEF0895FC0147
:1003D000918D828D981731F0828DE80FF11D858DFA
:1003E00090E008958FEF9FEF0895FC01918D228D8D
:1003F000892F90E0805C9F4F821B91098F73992712
:1004000008958DE691E00E94F50121E0892B09F421
:1004100020E0822F089580E090E0892B29F00E944F
:10042000010281110C9400000895FC01A48DA80F15
:10043000B92FB11DA35ABF4F2C91848D90E0019626
:100440008F739927848FA689B7892C93A089B18946
:100450008C91837080648C93938D848D981306C0E7
:100460000288F389E02D80818F7D80830895EF924B
:10047000FF920F931F93CF93DF93EC0181E0888F5E
:100480009B8D8C8D98131AC0E889F989808185FF2E
:1004900015C09FB7F894EE89FF896083E889F989D0
:1004A00080818370806480839FBF81E090E0DF91D2
:1004B000CF911F910F91FF90EF900895F62E0B8D25
:1004C00010E00F5F1F4F0F731127E02E8C8D8E11E0
:1004D0000CC00FB607FCFACFE889F989808185FF47
:1004E000F5CFCE010E941502F1CFEB8DEC0FFD2F61
:1004F000F11DE35AFF4FF0829FB7F8940B8FEA8902
:10050000FB8980818062CFCFCF93DF93EC01888D10
:100510008823B9F0AA89BB89E889F9898C9185FD7E
:1005200003C0808186FD0DC00FB607FCF7CF8C910C
:1005300085FFF2CF808185FFEDCFCE010E941502AD
:10054000E9CFDF91CF910895AF92BF92CF92DF9222
:10055000EF92FF920F931F93CF93DF936C017B0178
:100560008B01040F151FEB015E01AE18BF08C01709
:10057000D10759F06991D601ED91FC910190F0817C
:10058000E02DC6010995892B79F7C501DF91CF913F
:100590001F910F91FF90EF90DF90CF90BF90AF90A1
:1005A000089560912A0170912B0180912C01909106
:1005B0002D010E94630B20E030E342EF56E40E94DD
:1005C000BB0A20E030E04AE754E40E941A0C089588
:1005D0004F925F926F927F928F929F92AF92BF9253
:1005E000CF92DF92EF92FF920F931F93CF93DF93FF
:1005F0008A0120E030E342EF56E40E94BB0A9B01EF
:10060000AC010E944A0A2BED3FE049E450E40E940D
:100610001A0C2B013C01C12CD12C7601D0E0C0E09A
:100620002196BE010D2E000C880B990B0E94650BC4
:100630004B015C01AC019B01C301B2010E94BB0AEA
:100640000E94870C9B01AC01C501B4010E941A0CE9
:100650009B01AC01C701B6010E944A0A6B017C01F3
:100660000C171D07E9F6DF91CF911F910F91FF90B5
:10067000EF90DF90CF90BF90AF909F908F907F9042
:100680006F905F904F900895FC0101900020E9F772
:100690003197AF01481B590BBC018DE691E00C94DA
:1006A000A4028F929F92AF92BF920F931F93CF930A
:1006B000DF93CDB7DEB7A1970FB6F894DEBF0FBEBC
:1006C000CDBF19A2423008F44AE08E010F5D1F4FE2
:1006D000842E912CB12CA12CA50194010E94180A02
:1006E000E62FB901CA01EA30F4F4E05DD801EE93D7
:1006F0008D01232B242B252B79F790E080E0109798
:1007000019F0CD010E944403A1960FB6F894DEBF04
:100710000FBECDBFDF91CF911F910F91BF90AF90D2
:100720009F908F900895E95CE1CF1F920F920FB6D2
:100730000F9211242F933F938F939F93AF93BF9367
:100740008091690190916A01A0916B01B0916C0157
:100750003091680123E0230F2D3758F50196A11D34
:10076000B11D209368018093690190936A01A09361
:100770006B01B0936C018091640190916501A0912F
:100780006601B09167010196A11DB11D80936401BE
:1007900090936501A0936601B0936701BF91AF91FB
:1007A0009F918F913F912F910F900FBE0F901F90AF
:1007B000189526E8230F0296A11DB11DD2CF1F92D6
:1007C0000F920FB60F9211242F933F934F935F9385
:1007D0006F937F938F939F93AF93BF93EF93FF9309
:1007E0008DE691E00E941502FF91EF91BF91AF91CC
:1007F0009F918F917F916F915F914F913F912F9139
:100800000F900FBE0F901F9018951F920F920FB66A
:100810000F9211242F938F939F93EF93FF93E09167
:100820007D01F0917E018081E0918301F09184014E
:1008300082FD1BC09081809186018F5F8F73209114
:100840008701821741F0E0918601F0E0E359FE4F05
:10085000958F80938601FF91EF919F918F912F91BA
:100860000F900FBE0F901F9018958081F4CF1F92AC
:100870000F920FB60F921124CF92DF92EF92FF9258
:100880002F933F934F935F936F937F938F939F9398
:10089000AF93BF93EF93FF9320916001309161017B
:1008A000409162015091630160913E0170913F015E
:1008B00080914001909141010E944A0A6B017C01A4
:1008C00020E030E342EF56E40E94150C87FF41C060
:1008D000C0923E01D0923F01E0924001F09241016E
:1008E00080912A0190912B01A0912C01B0912D01B2
:1008F0000196A11DB11D41E050E060E070E08F3F26
:100900002FEF9207A207B20718F440E050E0BA01B7
:10091000840F951FA61FB71F80932A0190932B0168
:10092000A0932C01B0932D01FF91EF91BF91AF9156
:100930009F918F917F916F915F914F913F912F91F7
:10094000FF90EF90DF90CF900F900FBE0F901F9011
:10095000189510923E0110923F01109240011092A2
:10096000410120E030E040E85FE3609132017091A6
:10097000330180913401909135010E944A0A6093BD
:100980003201709333018093340190933501A8CFE5
:10099000CF93DF9300D000D0CDB7DEB7789484B585
:1009A000826084BD84B5816084BD85B5826085BD6B
:1009B00085B5816085BD80916E00816080936E00F9
:1009C00010928100809181008260809381008091EB
:1009D000810081608093810080918000816080939C
:1009E00080008091B10084608093B1008091B0005C
:1009F00081608093B00080917A00846080937A0057
:100A000080917A00826080937A0080917A00816080
:100A100080937A0080917A00806880937A001092A7
:100A2000C10061E085E00E942B0161E086E00E9448
:100A30002B0161E08BE00E942B0160E08EE00E94C0
:100A40002B0160E08FE00E942B0162E08CE00E94AD
:100A50002B01E0917D01F0917E0182E08083E091A5
:100A60007901F0917A011082E0917B01F0917C0193
:100A70008FEC808310928501E0918101F0918201D9
:100A800086E08083E0917F01F09180018081806128
:100A90008083E0917F01F091800180818860808374
:100AA000E0917F01F0918001808180688083E091F6
:100AB0007F01F091800180818F7D808380E00E94A2
:100AC0009B00BC01990F880B990B6115710581057D
:100AD000910511F00E94DD09F894109280001092A7
:100AE0008100109285001092840085B5887F816016
:100AF00085BD83E092E09093890080938800809187
:100B00008100886080938100809181008160809362
:100B1000810080916F00826080936F0078948EE0F6
:100B20000E949B0056E5252E51E0352E412C512C7C
:100B300060E8662E6FEB762E8EE00E949B00BC0173
:100B4000990F880B990B0E94650B20E030E040E87C
:100B50005FE30E94490A20E030E040EA51E40E944D
:100B60001A0C20E030E84FE754E40E94BB0A20E072
:100B700030E0A9010E944A0A20E030E040E251E45E
:100B80000E941A0C6B017C0120E030E0A9010E9458
:100B9000150C20E030E040E05FE387FDCFC0C701E7
:100BA000B6010E944A0A0E942D0B0E94650B20E0AC
:100BB00030E040E251E40E94BB0A6B017C014B0132
:100BC0005C01C0926001D0926101E0926201F092FA
:100BD0006301AC019B010E948F0C882309F4B3C010
:100BE0008AE191E00E94440386E291E00E9444037E
:100BF0008FE00E949B00BC01990F880B990B0E940B
:100C0000650B20E030E040E85FE30E94490A20E005
:100C100030E040E051E40E941A0C20E030E84FE759
:100C200054E40E94BB0A20E030E0A9010E944A0A75
:100C30000E942D0B70935F0160935E010E94D900AA
:100C40006C01892B09F064C10E94D90020915C01DC
:100C500030915D018217930709F45AC1E0905A015F
:100C6000F0905B01E114F10409F406C10E94D10285
:100C700020915601309157014091580150915901EE
:100C80000E94490A20E030E84BE355E40E94150C2D
:100C900018160CF4F1C0D701AA0FBB1FAA0FBB1F77
:100CA000BA83A983FD01EE5BFE4F20E030E040E80F
:100CB0005FEB60817181828193810E94B60A81110C
:100CC00042C10E94D1028701000F111F000F111FA6
:100CD000025C1E4FF80120813181428153810E94C4
:100CE000490AD8016D937D938D939C9313970E942D
:100CF000D102E981FA81EE5BFE4F608371838283CA
:100D00009383E2E4F1E0FA83E983812C912C54018E
:100D1000CE14DF040CF025C1A981BA812D913D913B
:100D20004D915D91BA83A983C501B4010E944A0A1D
:100D30004B015C01BFEFCB1ADB0AEACFC701B6015A
:100D40000E94490A30CFD701C601BF7789839A83B1
:100D5000AB83BC832FEF3FEF4FE75FE7BC01CD01D3
:100D60000E948F0C81110FC02FEF3FEF4FE75FE71D
:100D700069817A818B819C810E94B60A18161CF4C5
:100D80008EE191E02FCF2FEF3FEF4FE75FE4C701F8
:100D9000B6010E94150C18161CF482E291E022CFD5
:100DA0002FEF3FEF4FE75FECC701B6010E94B60A95
:100DB00087FDF3CF20E030E0A901C701B6010E9412
:100DC000B60A87FF0BC06DE28DE691E00E94370204
:100DD00046015701B7FAB094B7F8B0942AE037ED5E
:100DE00043EA5BE3C501B4010E944A0A4B015C017E
:100DF0000E94340B6B017C010E94630B9B01AC01D0
:100E0000C501B4010E94490A4B015C014AE0C701D7
:100E1000B6010E9451036EE28DE691E00E94370216
:100E200020E030E040E251E4C501B4010E941A0C18
:100E30004B015C010E94340B6B01F12CE12C4AE068
:100E4000C701B6010E945103C701B6010E94630B9E
:100E50009B01AC01C501B4010E94490A20E030E0C9
:100E600040E251E40E941A0C0E94340B90E080E0B2
:100E70004AE00E945103B8CE10925B0110925A01D1
:100E80004092460150924701609248017092490198
:100E900040924A0150924B0160924C0170924D0178
:100EA00040924E0150924F01609250017092510158
:100EB0004092520150925301609254017092550138
:100EC0000E94D102609342017093430180934401D8
:100ED0009093450110923E0110923F011092400103
:100EE000109241010E94D102609356017093570104
:100EF000809358019093590180915A0190915B0120
:100F0000843091052CF4019690935B0180935A01F3
:100F10000E94D90090935D0180935C01E0915E0195
:100F2000F0915F01E930F10508F08AC0E656F84F0C
:100F30000C941C0DDC07ED077D08AF08C708D4082A
:100F4000DF08EA08F508E2E4F1E084819581A681F2
:100F5000B78181939193A193B1932E163F06A9F780
:100F6000B0CEB701FF0C880B990B0E94650B9B015B
:100F7000AC01C501B4010E94BB0A20E030E04AE7A1
:100F800054E40E94BB0A9B01AC0120933A013093C8
:100F90003B0140933C0150933D0160E070E080E8EC
:100FA0009FE30E94BB0A609360017093610180938C
:100FB00062019093630196CF20E030E342EF56E464
:100FC00060913E0170913F018091400190914101FB
:100FD0000E94BB0A9B01AC01B5C020E030E342EFA8
:100FE00056E460913E0170913F01809140019091E3
:100FF00041010E94BB0A6B017C0120E030E0A901A5
:101000000E94150C20E030E040E05FE387FD70C0F7
:10101000C701B6010E944A0A0E942D0B660F771F76
:10102000881F991F61507109810991090E94650B00
:1010300060933601709337018093380190933901A2
:101040008091320190913301A0913401B09135012A
:101050008093000190930101A0930201B0930301DA
:10106000C0903601D0903701E0903801F0903901FE
:1010700020E030E0A901C701B6010E94B60A88232A
:1010800051F120E030E040E05FE3C701B6010E948B
:101090001A0C20E030E040E05FE30E944A0A20E0C2
:1010A00030E04FE753E40E941A0C60932E017093D6
:1010B0002F0180933001909331010E942D0B6B0121
:1010C0008BE00E946701B60185E00E946701B601CE
:1010D00086E00E946701E0E0F0E0EF2B09F42CCD00
:1010E0000E940102882309F427CD0E94000024CD2C
:1010F000C701B6010E94490A8FCF20E030E342EFDA
:1011000056E460913E0170913F01809140019091C1
:1011100041010E94BB0A9B01AC010E944A0A20E0E7
:1011200030E040E85FE30E94490A6B017C0120E067
:1011300030E0A9010E94150C18166CF4A701960165
:10114000C701B6010E944A0A20E030E040E85FE3B0
:101150000E94490A6DCFC701B60190583BCF20913C
:101160003201309133014091340150913501609149
:1011700000017091010180910201909103010E9490
:10118000B60A81113DC060E070E0CB0151CF6091A3
:101190003E0170913F01809140019091410141E0F9
:1011A00050E00E94E80244CF60913E0170913F01FF
:1011B000809140019091410142E050E0F2CF609176
:1011C0003E0170913F01809140019091410143E0C7
:1011D00050E0E7CF60913E0170913F018091400166
:1011E0009091410144E050E0DCCF60913E0170916C
:1011F0003F01809140019091410145E050E0D1CF05
:101200000E948E0928EC30E040E050E00E94E609A0
:1012100064567109810991090E94650B20E030E054
:1012200048EC52E40E94BB0A03CFEDE6F1E01382E2
:10123000128288EE93E0A0E0B0E084839583A683D9
:10124000B7838CE091E09183808385EC90E0958773
:10125000848784EC90E09787868780EC90E0918B80
:10126000808B81EC90E0938B828B82EC90E0958B6D
:10127000848B86EC90E0978B868B118E128E138E6A
:10128000148E08958F929F92AF92BF92CF92DF9269
:10129000EF92FF92CF93DF93EC01688179818A818D
:1012A0009B81611571058105910521F464E279ED59
:1012B0008BE597E02DE133EF41E050E00E94E60935
:1012C00049015A019B01AC01A7EAB1E40E94050A59
:1012D0006B017C01ACEEB4EFA50194010E94130AEE
:1012E000C60ED71EE81EF91EF7FE06C081E0C81A1A
:1012F000D108E10880E8F80AC882D982EA82FB8234
:10130000C701B6019F77DF91CF91FF90EF90DF90FB
:10131000CF90BF90AF909F908F9008958F929F92A3
:10132000AF92BF92CF92DF92EF92FF926091040151
:101330007091050180910601909107016115710579
:101340008105910521F464E279ED8BE597E02DE1CB
:1013500033EF41E050E00E94E60949015A019B0148
:10136000AC01A7EAB1E40E94050A6B017C01ACEE76
:10137000B4EFA50194010E94130AC60ED71EE81E01
:10138000F91EF7FE06C081E0C81AD108E10880E81E
:10139000F80AC0920401D0920501E0920601F09291
:1013A0000701C701B6019F77FF90EF90DF90CF90C4
:1013B000BF90AF909F908F900895609304017093B9
:1013C000050180930601909307010895052E97FB70
:1013D0001EF400940E94FD0957FD07D00E94180AD0
:1013E00007FC03D04EF40C94FD09509540953095C0
:1013F00021953F4F4F4F5F4F089590958095709581
:1014000061957F4F8F4F9F4F08950E943A0AA59F85
:10141000900DB49F900DA49F800D911D11240895EF
:10142000B7FF0C94050A0E94050A821B930B0895CE
:10143000A1E21A2EAA1BBB1BFD010DC0AA1FBB1FD8
:10144000EE1FFF1FA217B307E407F50720F0A21B4A
:10145000B30BE40BF50B661F771F881F991F1A94B7
:1014600069F760957095809590959B01AC01BD01E1
:10147000CF010895A29FB001B39FC001A39F700D3B
:10148000811D1124911DB29F700D811D1124911D8C
:1014900008955058BB27AA270E94610A0C94DB0BC1
:1014A0000E94CD0B38F00E94D40B20F039F49F3FFE
:1014B00019F426F40C94CA0B0EF4E095E7FB0C9497
:1014C000C40BE92F0E94EC0B58F3BA17620773079D
:1014D0008407950720F079F4A6F50C940E0C0EF411
:1014E000E0950B2EBA2FA02D0B01B90190010C0134
:1014F000CA01A0011124FF27591B99F0593F50F44C
:10150000503E68F11A16F040A22F232F342F4427A3
:10151000585FF3CF469537952795A795F04053959B
:10152000C9F77EF41F16BA0B620B730B840BBAF06B
:101530009150A1F0FF0FBB1F661F771F881FC2F7D6
:101540000EC0BA0F621F731F841F48F487957795EA
:101550006795B795F7959E3F08F0B0CF9395880FA4
:1015600008F09927EE0F9795879508950E94A00B94
:1015700008F481E008950E94CF0A0C94DB0B0E94CE
:10158000D40B58F00E94CD0B40F029F45F3F29F0B6
:101590000C94C40B51110C940F0C0C94CA0B0E94A8
:1015A000EC0B68F39923B1F3552391F3951B550B7D
:1015B000BB27AA2762177307840738F09F5F5F4F26
:1015C000220F331F441FAA1FA9F335D00E2E3AF065
:1015D000E0E832D091505040E695001CCAF72BD07D
:1015E000FE2F29D0660F771F881FBB1F26173707CE
:1015F0004807AB07B0E809F0BB0B802DBF01FF2700
:1016000093585F4F3AF09E3F510578F00C94C40B0D
:101610000C940F0C5F3FE4F3983ED4F386957795D6
:101620006795B795F7959F5FC9F7880F911D9695B8
:10163000879597F90895E1E0660F771F881FBB1F14
:10164000621773078407BA0720F0621B730B840BC1
:10165000BA0BEE1F88F7E09508950E94340B68944A
:10166000B1110C940F0C08950E94F40B88F09F5751
:1016700098F0B92F9927B751B0F0E1F0660F771FB6
:10168000881F991F1AF0BA95C9F714C0B13091F0AC
:101690000E940E0CB1E008950C940E0C672F782F69
:1016A0008827B85F39F0B93FCCF386957795679571
:1016B000B395D9F73EF490958095709561957F4FDD
:1016C0008F4F9F4F0895E89409C097FB3EF4909583
:1016D0008095709561957F4F8F4F9F4F9923A9F00B
:1016E000F92F96E9BB279395F6958795779567959A
:1016F000B795F111F8CFFAF4BB0F11F460FF1BC0DE
:101700006F5F7F4F8F4F9F4F16C0882311F096E970
:1017100011C0772321F09EE8872F762F05C066231E
:1017200071F096E8862F70E060E02AF09A95660FD7
:10173000771F881FDAF7880F9695879597F9089590
:10174000990F0008550FAA0BE0E8FEEF16161706D2
:10175000E807F907C0F012161306E407F50798F03A
:10176000621B730B840B950B39F40A2661F0232B53
:10177000242B252B21F408950A2609F4A140A695CF
:101780008FEF811D811D089597F99F6780E870E0B4
:1017900060E008959FEF80EC089500240A941616E7
:1017A000170618060906089500240A94121613064F
:1017B000140605060895092E0394000C11F48823DD
:1017C00052F0BB0F40F4BF2B11F460FF04C06F5FF9
:1017D0007F4F8F4F9F4F089557FD9058440F551FCF
:1017E00059F05F3F71F04795880F97FB991F61F0A3
:1017F0009F3F79F087950895121613061406551F1A
:10180000F2CF4695F1DF08C0161617061806991F85
:10181000F1CF86957105610508940895E894BB277A
:1018200066277727CB0197F908950E94A00B08F44B
:101830008FEF08950E942D0C0C94DB0B0E94CD0BB2
:1018400038F00E94D40B20F0952311F00C94C40BB7
:101850000C94CA0B11240C940F0C0E94EC0B70F327
:10186000959FC1F3950F50E0551F629FF001729F45
:10187000BB27F00DB11D639FAA27F00DB11DAA1F54
:10188000649F6627B00DA11D661F829F2227B00DA1
:10189000A11D621F739FB00DA11D621F839FA00D2C
:1018A000611D221F749F3327A00D611D231F849F7C
:1018B000600D211D822F762F6A2F11249F575040D3
:1018C0009AF0F1F088234AF0EE0FFF1FBB1F661F4E
:1018D000771F881F91505040A9F79E3F510580F017
:1018E0000C94C40B0C940F0C5F3FE4F3983ED4F3BC
:1018F000869577956795B795F795E7959F5FC1F7BB
:10190000FE2B880F911D9695879597F908959F93C3
:101910000E94960C0F9007FCEE5F0C94BF0C0E9487
:10192000A00B880B990B08950C94CA0B0E94F40B22
:10193000D8F3E894E0E0BB279F57F0F02AED3FE0B2
:1019400049EC06C0EE0FBB0F661F771F881F28F0FB
:10195000B23A62077307840728F0B25A620B730B1E
:10196000840BE3959A9572F7803830F49A95BB0F03
:10197000661F771F881FD2F790480C94D50CEF9301
:10198000E0FF07C0A2EA2AED3FE049EC5FEB0E94CE
:10199000610A0E94DB0B0F90039401FC9058E8E66B
:1019A000F0E00C94E10C9F3F31F0915020F48795CA
:1019B00077956795B795880F911D9695879597F9B7
:1019C00008959F938F937F936F93FF93EF939B0162
:1019D000AC010E941A0CEF91FF910E94F50C2F911F
:1019E0003F914F915F910C941A0CDF93CF931F930B
:1019F0000F93FF92EF92DF927B018C01689406C0F7
:101A0000DA2EEF010E942D0CFE01E894A59125919C
:101A1000359145915591A6F3EF010E94610AFE01AF
:101A20009701A801DA9469F7DF90EF90FF900F918A
:101A30001F91CF91DF910895EE0FFF1F0590F49154
:081A4000E02D0994F894FFCF9A
:101A4800000080BF01000000000000003702A4026F
:101A5800C4018402F501D301E7016E616E00696E6D
:0A1A680066006F7666000D0A0000AC
:00000001FF
