:100000000C946C000C9494000C9494000C94940048
:100010000C9494000C9494000C9494000C94940010
:100020000C9494000C9494000C9494000C94940000
:100030000C9494000C9494000C9494000C949400F0
:100040000C9456020C9494000C94C6020C94A002DA
:100050000C9494000C9494000C9494000C949400D0
:100060000C9494000C94940005A84CCDB2D44EB9D5
:100070003836A9020C50B9918688083CA6AAAA2A4B
:10008000BE000000803F00000000240027002A007E
:1000900000000000250028002B00040404040404D0
:1000A0000404020202020202030303030303010227
:1000B00004081020408001020408102001020408F6
:1000C00010200000000800020100000304070000E7
:1000D000000000000000C80511241FBECFEFD8E0CB
:1000E000DEBFCDBF11E0A0E0B1E0EEE3F2E102C07F
:1000F00005900D92A232B107D9F721E0A2E2B1E05A
:1001000001C01D92A83DB207E1F710E0CCE6D0E0B7
:1001100004C02197FE010E941209CB36D107C9F70E
:100120000E94F8020C941D090C940000E8ECF0E029
:100130009491E4EBF0E02491E0EAF0E0E491EE2326
:1001400009F43CC0992339F1933091F038F491309F
:10015000A9F0923001F594B59F7D12C0973091F0CF
:100160009830A1F09430B9F4909180009F7D03C045
:10017000909180009F77909380000DC094B59F77F9
:1001800094BD09C09091B0009F7703C09091B000DA
:100190009F7D9093B000F0E0EE0FFF1FE057FF4F00
:1001A000A591B4919FB7F894811104C08C912095CA
:1001B000282302C0EC912E2B2C939FBF08958E30E4
:1001C00008F08E508770806480937C0080917A0064
:1001D000806480937A0080917A0086FDFCCF8091C4
:1001E00078002091790090E0922B0895CF93DF93CF
:1001F00090E0FC01E255FF4F2491FC01E656FF4FD1
:100200008491882361F190E0880F991FFC01EA57DF
:10021000FF4FC591D491FC01E057FF4FA591B491D8
:10022000611109C09FB7F894888120958223888343
:10023000EC912E230BC0623061F49FB7F894888153
:10024000322F309583238883EC912E2B2C939FBFE4
:1002500006C08FB7F894E8812E2B28838FBFDF91DB
:10026000CF910895FC01538D448D252F30E0842FCC
:1002700090E0821B930B541710F0CF9608950197CE
:100280000895FC01918D828D981761F0828DDF01B8
:10029000A80FB11D5D968C91928D9F5F9F73928F79
:1002A00090E008958FEF9FEF0895FC01918D828D6E
:1002B000981731F0828DE80FF11D858D90E008953B
:1002C0008FEF9FEF0895FC01918D228D892F90E093
:1002D000805C9F4F821B91098F73992708958BE350
:1002E00091E00E94630121E0892B09F420E0822F34
:1002F0000895FC01848DDF01A80FB11DA35ABF4FE3
:100300002C91848D90E001968F739927848FA68914
:10031000B7892C93A089B1898C91837080648C9368
:10032000938D848D981306C00288F389E02D808117
:100330008F7D80830895EF92FF920F931F93CF9349
:10034000DF93EC0181E0888F9B8D8C8D981305C025
:10035000E889F989808185FD26C0F62E0B8D10E095
:100360000F5F1F4F0F731127E02E8C8DE8120CC00A
:100370000FB607FCFACFE889F989808185FFF5CFB0
:10038000CE010E947901F1CF8B8DFE01E80FF11DA6
:10039000E35AFF4FF0829FB7F8940B8FEA89FB89ED
:1003A000808180620AC09FB7F894EE89FF896083DC
:1003B000E889F98980818370806480839FBF81E0B0
:1003C00090E0DF91CF911F910F91FF90EF900895F2
:1003D000CF93DF93EC01888D8823C9F0EA89FB89EC
:1003E000808185FD05C0A889B9898C9186FD0FC0E3
:1003F0000FB607FCF5CF808185FFF2CFA889B989B8
:100400008C9185FFEDCFCE010E947901E7CFDF917E
:10041000CF91089580E090E0892B29F00E946F0130
:1004200081110C9400000895CF92DF92EF92FF9219
:100430000F931F93CF93DF936C017A018B01C0E080
:10044000D0E0CE15DF0581F0D8016D918D01D60188
:10045000ED91FC910190F081E02DC6010995892B69
:1004600011F02196EECF7E01C701DF91CF911F9150
:100470000F91FF90EF90DF90CF900895089580E066
:1004800090E00895009769F0FC0101900020E9F7E1
:100490003197AF01481B590BBC018BE391E00C94E1
:1004A000140280E090E008950E9418091F920F92B4
:1004B0000FB60F9211242F933F938F939F93AF9377
:1004C000BF938091370190913801A0913901B0918B
:1004D0003A013091360123E0230F2D3720F40196A5
:1004E000A11DB11D05C026E8230F0296A11DB11D57
:1004F000209336018093370190933801A0933901FE
:10050000B0933A018091320190913301A09134016E
:10051000B09135010196A11DB11D809332019093D8
:100520003301A0933401B0933501BF91AF919F91F6
:100530008F913F912F910F900FBE0F901F901895A4
:100540001F920F920FB60F9211242F933F934F9348
:100550005F936F937F938F939F93AF93BF93EF932B
:10056000FF938BE391E00E947901FF91EF91BF919E
:10057000AF919F918F917F916F915F914F913F913B
:100580002F910F900FBE0F901F9018951F920F92F2
:100590000FB60F9211242F938F939F93EF93FF9396
:1005A000E0914B01F0914C018081E0915101F0917B
:1005B000520182FD12C09081809154018F5F8F7330
:1005C00020915501821751F0E0915401F0E0E55C73
:1005D000FE4F958F8093540101C08081FF91EF9170
:1005E0009F918F912F910F900FBE0F901F90189594
:1005F000CF93DF93CDB7DEB7A1970FB6F894DEBFE8
:100600000FBECDBF789484B5826084BD84B581600F
:1006100084BD85B5826085BD85B5816085BD8091CD
:100620006E00816080936E00109281008091810045
:10063000826080938100809181008160809381003D
:10064000809180008160809380008091B1008460FF
:100650008093B1008091B00081608093B000809160
:100660007A00846080937A0080917A00826080931F
:100670007A0080917A00816080937A0080917A007C
:10068000806880937A001092C10061E086E00E9449
:10069000F60060E08EE00E94F60060E08FE00E94CD
:1006A000F600E0914B01F0914C0182E08083E091F3
:1006B0004701F09148011082E0914901F0914A010F
:1006C0008FEC808310925301E0914F01F091500123
:1006D00086E08083E0914D01F0914E018081806140
:1006E0008083E0914D01F0914E018081886080838C
:1006F000E0914D01F0914E01808180688083E0910E
:100700004D01F0914E0180818F7D80838BE9282EF1
:100710008FE0382E8EE00E94DF0020E030E040E2E3
:1007200051E460912E0170912F01809130019091E0
:1007300031010E9418066B017C0120E030E04AE79D
:1007400054E40E94E30787FF09C0C0922E01D092B3
:100750002F01E0923001F092310108C010922E0179
:1007600010922F0110923001109231018FE00E94FF
:10077000DF0020912C0130912D018217930739F071
:100780008FE00E94DF008F3F934009F4F3C18FE0B8
:100790000E94DF0090932D0180932C0180912A010B
:1007A00090912B0181309105C9F094F4892B09F0C7
:1007B0008BC020E030E04AE754E460912E01709154
:1007C0002F0180913001909131010E9489066AC009
:1007D00082309105F1F00397F1F176C020E030E02E
:1007E0004AE754E460912E0170912F01809130010D
:1007F000909131010E9489069B01AC010E9418066C
:100800002BED3FE049E450E40E94E8070E945508C0
:1008100053C020E030E04AEF53E460912E01709124
:100820002F0180913001909131010E94840687FF51
:1008300005C080E090E0A0E8BFE304C080E090E065
:10084000A0E8BFEB8093260190932701A093280195
:10085000B093290139C020E030E04AEF53E46091C1
:100860002E0170912F0180913001909131010E94F1
:1008700017066B017C0120E030E0A9010E94E3072C
:1008800018163CF42FE632E143E05BE3C701B60102
:1008900007C0C701B60190582FE632E143E05BE3A1
:1008A0000E94E8079B01AC010E94180620E030E09E
:1008B00040E85FE30E9417066093260170932701CA
:1008C000809328019093290120E030E040E05FE32D
:1008D0006091260170912701809128019091290152
:1008E0000E94E80720E030E040E05FE30E94180645
:1008F00020E030E04FE753E40E94E8076B017C0101
:100900004B015C01609322017093230180932401C9
:10091000909325019B01AC010E945D08882319F08A
:1009200082E191E01AC026013701E89477F82FEFB1
:100930003FEF4FE75FE7C301B2010E945D088111FD
:100940000FC02FEF3FEF4FE75FE7C301B2010E94F7
:10095000840618162CF486E191E00E944202A0C0A1
:100960002FEF3FEF4FE75FE4C701B6010E94E307B7
:1009700018161CF48AE191E0F0CF2FEF3FEF4FE71C
:100980005FECC701B6010E94840687FDF3CF20E02B
:1009900030E0A901C701B6010E94840687FF0BC0A1
:1009A0006DE28BE391E00E949B0146015701B7FA8B
:1009B000B094B7F8B0942AE037ED43EA5BE3C501A1
:1009C000B4010E9418066B017C010E9402074B01D2
:1009D0005C010E9431079B01AC01C701B6010E9476
:1009E00017062B013C0119A27E0191E2E90EF11CD0
:1009F0000E2DDF2CC501B4012AE030E040E050E0CC
:100A00000E94F50549015A01605DD7016E937D0191
:100A1000232B242B252B71F7CD010E9442026EE27D
:100A20008BE391E00E949B0113E01150C9F120E09B
:100A300030E040E251E4C301B2010E94E8074B01FB
:100A40005C010E9402079B0140E050E019A2E02EE9
:100A5000FD2C562E632E742EC52ECA01B9012AE034
:100A600030E040E050E00E94F505605DF7016293E0
:100A70007F01211531054105510579F7CF010E940C
:100A80004202652D762D872D9C2D0E9431079B01FA
:100A9000AC01C501B4010E9417062B013C01C5CF72
:100AA0008EE191E00E944202609122017091230147
:100AB00080912401909125010E94FB066B017C012D
:100AC0008B0161E086E00E94F600C114D10411F4AC
:100AD00080E004C00F3F110521F481E00E949600E0
:100AE00043C0E8ECF0E084918330F9F048F48130C1
:100AF000B9F08230A1F584B5806284BDC8BC34C031
:100B00008730E9F0883019F1843049F58091800010
:100B1000806280938000D0928B00C0928A0024C0B3
:100B200084B5806884BDC7BC1FC080918000806888
:100B300080938000D0928900C092880015C0809177
:100B4000B00080688093B000C092B3000DC0809167
:100B5000B00080628093B000C092B40005C000383D
:100B600011050CF0BACFB4CFC1010197F1F70E9483
:100B70000A02D0CD80912A0190912B01019664E068
:100B800070E00E94EA0890932B0180932A01FFCD28
:100B9000EBE3F1E01382128288EE93E0A0E0B0E094
:100BA00084839583A683B78384E091E091838083D7
:100BB00085EC90E09587848784EC90E09787868722
:100BC00080EC90E0918B808B81EC90E0938B828B1A
:100BD00082EC90E0958B848B86EC90E0978B868BF3
:100BE000118E128E138E148E0895A1E21A2EAA1B56
:100BF000BB1BFD010DC0AA1FBB1FEE1FFF1FA217CD
:100C0000B307E407F50720F0A21BB30BE40BF50BC9
:100C1000661F771F881F991F1A9469F76095709552
:100C2000809590959B01AC01BD01CF01089550586E
:100C3000BB27AA270E942F060C94A9070E949B0796
:100C400038F00E94A20720F039F49F3F19F426F4EF
:100C50000C9498070EF4E095E7FB0C949207E92FAB
:100C60000E94BA0758F3BA176207730784079507FB
:100C700020F079F4A6F50C94DC070EF4E0950B2E29
:100C8000BA2FA02D0B01B90190010C01CA01A001DE
:100C90001124FF27591B99F0593F50F4503E68F139
:100CA0001A16F040A22F232F342F4427585FF3CF7A
:100CB000469537952795A795F0405395C9F77EF44B
:100CC0001F16BA0B620B730B840BBAF09150A1F094
:100CD000FF0FBB1F661F771F881FC2F70EC0BA0F1A
:100CE000621F731F841F48F4879577956795B795A2
:100CF000F7959E3F08F0B0CF9395880F08F099279D
:100D0000EE0F9795879508950E946E0708F481E08D
:100D100008950E949D060C94A9070E94A20758F00E
:100D20000E949B0740F029F45F3F29F00C94920742
:100D300051110C94DD070C9498070E94BA0768F3D0
:100D40009923B1F3552391F3951B550BBB27AA2784
:100D500062177307840738F09F5F5F4F220F331FBE
:100D6000441FAA1FA9F335D00E2E3AF0E0E832D086
:100D700091505040E695001CCAF72BD0FE2F29D089
:100D8000660F771F881FBB1F261737074807AB075B
:100D9000B0E809F0BB0B802DBF01FF2793585F4FD0
:100DA0003AF09E3F510578F00C9492070C94DD07C1
:100DB0005F3FE4F3983ED4F3869577956795B795B2
:100DC000F7959F5FC9F7880F911D9695879597F9BD
:100DD0000895E1E0660F771F881FBB1F6217730736
:100DE0008407BA0720F0621B730B840BBA0BEE1F4B
:100DF00088F7E09508950E9402076894B1110C9459
:100E0000DD0708950E94C20788F09F5798F0B92F18
:100E10009927B751B0F0E1F0660F771F881F991F2F
:100E20001AF0BA95C9F714C0B13091F00E94DC07EE
:100E3000B1E008950C94DC07672F782F8827B85FFE
:100E400039F0B93FCCF3869577956795B395D9F787
:100E50003EF490958095709561957F4F8F4F9F4F91
:100E60000895E89409C097FB3EF49095809570959D
:100E700061957F4F8F4F9F4F9923A9F0F92F96E9E6
:100E8000BB279395F695879577956795B795F1115B
:100E9000F8CFFAF4BB0F11F460FF1BC06F5F7F4FF8
:100EA0008F4F9F4F16C0882311F096E911C077230A
:100EB00021F09EE8872F762F05C0662371F096E813
:100EC000862F70E060E02AF09A95660F771F881FE2
:100ED000DAF7880F9695879597F90895990F000886
:100EE000550FAA0BE0E8FEEF16161706E807F907FC
:100EF000C0F012161306E407F50798F0621B730B97
:100F0000840B950B39F40A2661F0232B242B252B17
:100F100021F408950A2609F4A140A6958FEF811DBA
:100F2000811D089597F99F6780E870E060E008955B
:100F30009FEF80EC089500240A94161617061806F1
:100F40000906089500240A941216130614060506CD
:100F50000895092E0394000C11F4882352F0BB0F5E
:100F600040F4BF2B11F460FF04C06F5F7F4F8F4FC1
:100F70009F4F089557FD9058440F551F59F05F3FFC
:100F800071F04795880F97FB991F61F09F3F79F0AB
:100F900087950895121613061406551FF2CF46952D
:100FA000F1DF08C0161617061806991FF1CF8695AF
:100FB0007105610508940895E894BB276627772793
:100FC000CB0197F908950E946E0708F48FEF0895FA
:100FD0000E94FB070C94A9070E949B0738F00E940F
:100FE000A20720F0952311F00C9492070C94980717
:100FF00011240C94DD070E94BA0770F3959FC1F38A
:10100000950F50E0551F629FF001729FBB27F00DB6
:10101000B11D639FAA27F00DB11DAA1F649F66270B
:10102000B00DA11D661F829F2227B00DA11D621F5A
:10103000739FB00DA11D621F839FA00D611D221F14
:10104000749F3327A00D611D231F849F600D211DF8
:10105000822F762F6A2F11249F5750409AF0F1F07B
:1010600088234AF0EE0FFF1FBB1F661F771F881FE4
:1010700091505040A9F79E3F510580F00C94920783
:101080000C94DD075F3FE4F3983ED4F386957795A3
:101090006795B795F795E7959F5FC1F7FE2B880F8A
:1010A000911D9695879597F908959F930E946408DE
:1010B0000F9007FCEE5F0C948D080E946E07880B62
:1010C000990B08950C9498070E94C207D8F3E894EE
:1010D000E0E0BB279F57F0F02AED3FE049EC06C067
:1010E000EE0FBB0F661F771F881F28F0B23A62070A
:1010F0007307840728F0B25A620B730B840BE395D5
:101100009A9572F7803830F49A95BB0F661F771F57
:10111000881FD2F790480C94A308EF93E0FF07C014
:10112000A2EA2AED3FE049EC5FEB0E942F060E9405
:10113000A9070F90039401FC9058E8E6F0E00C94A6
:10114000AF089F3F31F0915020F4879577956795D0
:10115000B795880F911D9695879597F908959F9358
:101160008F937F936F93FF93EF939B01AC010E944A
:10117000E807EF91FF910E94C3082F913F914F9193
:101180005F910C94E807DF93CF931F930F93FF9227
:10119000EF92DF927B018C01689406C0DA2EEF019A
:1011A0000E94FB07FE01E894A59125913591459198
:1011B0005591A6F3EF010E942F06FE019701A801A9
:1011C000DA9469F7DF90EF90FF900F911F91CF9124
:1011D000DF91089597FB072E16F4009407D077FD52
:1011E00009D00E94FE0807FC05D03EF49095819539
:1011F0009F4F0895709561957F4F0895AA1BBB1B63
:1012000051E107C0AA1FBB1FA617B70710F0A61B06
:10121000B70B881F991F5A95A9F780959095BC0127
:10122000CD010895EE0FFF1F0590F491E02D099474
:0E12300081E090E0F8940C941D09F894FFCF33
:10123E00000000009B0114023201E801630141012C
:10124E0055016E616E00696E66006F7666000D0A5E
:02125E0000008E
:00000001FF
