:100000000C9471000C9499000C9499000C94990034
:100010000C9499000C9499000C9499000C949900FC
:100020000C9499000C9499000C9499000C9404037E
:100030000C9499000C9499000C9499000C949900DC
:100040000C9462020C9499000C94D2020C94AC02B1
:100050000C9499000C9499000C9499000C949900BC
:100060000C9499000C94990005A84CCDB2D44EB9CB
:100070003836A9020C50B9918688083CA6AAAA2A4B
:10008000BE000000803F00000000240027002A007E
:1000900000000000230026002900000000002500C9
:1000A00028002B00040404040404040402020202D5
:1000B000020203030303030301020408102040802B
:1000C00001020408102001020408102000000008AA
:1000D000000201000003040700000000000000000F
:1000E000630511241FBECFEFD8E0DEBFCDBF11E006
:1000F000A0E0B1E0E4EDF1E102C005900D92A23183
:10010000B107D9F721E0A2E1B1E001C01D92A73CFF
:10011000B207E1F710E0C1E7D0E004C02197FE018B
:100120000E94DD08C037D107C9F70E945B030C9419
:10013000E8080C940000CF92DF92EF92FF920F93A9
:100140001F93CF93DF936C017A018B01C0E0D0E065
:10015000CE15DF0581F0D8016D918D01D601ED91AD
:10016000FC910190F081E02DC6010995892B11F0D9
:100170002196EECF7E01C701DF91CF911F910F91A4
:10018000FF90EF90DF90CF900895833081F028F4B6
:10019000813099F08230A1F008958730A9F088303D
:1001A000B9F08430D1F4809180008F7D03C08091BC
:1001B00080008F7780938000089584B58F7702C088
:1001C00084B58F7D84BD08958091B0008F7703C082
:1001D0008091B0008F7D8093B00008951F93CF93DE
:1001E000DF93E2EDF0E09491EEEBF0E0D491EAEAF7
:1001F000F0E0C491CC23D1F0182F992319F0892F66
:100200000E94C500EC2FF0E0EE0FFF1FE656FF4FF7
:10021000A591B4919FB7F894111104C08C91D09519
:10022000D82302C0EC91DE2BDC939FBFDF91CF91EE
:100230001F910895CF93DF93E1EDF0E08491EDEB12
:10024000F0E0D491E9EAF0E0C491CC2391F081117F
:100250000E94C500EC2FF0E0EE0FFF1FE057FF4FAC
:10026000A591B491EC91ED2381E090E021F480E040
:1002700002C080E090E0DF91CF910895CF93DF93AB
:1002800090E0FC01E854FF4F2491FC01EC55FF4F36
:100290008491882361F190E0880F991FFC01EA574F
:1002A000FF4FC591D491FC01E656FF4FA591B49143
:1002B000611109C09FB7F8948881209582238883B3
:1002C000EC912E230BC0623061F49FB7F8948881C3
:1002D000322F309583238883EC912E2B2C939FBF54
:1002E00006C08FB7F894E8812E2B28838FBFDF914B
:1002F000CF910895089580E090E00895FC01538D1A
:10030000448D252F30E0842F90E0821B930B5417EF
:1003100010F0CF96089501970895FC01918D828D7C
:10032000981761F0828DDF01A80FB11D5D968C9149
:10033000928D9F5F9F73928F90E008958FEF9FEF54
:100340000895FC01918D828D981731F0828DE80F10
:10035000F11D858D90E008958FEF9FEF0895FC01CA
:10036000918D228D892F90E0805C9F4F821B910997
:100370008F739927089582E191E00E94AF0121E0F7
:10038000892B09F420E0822F0895FC01848DDF0180
:10039000A80FB11DA35ABF4F2C91848D90E00196F8
:1003A0008F739927848FA689B7892C93A089B189E7
:1003B0008C91837080648C93938D848D981306C088
:1003C0000288F389E02D80818F7D80830895EF92EC
:1003D000FF920F931F93CF93DF93EC0181E0888FFF
:1003E0009B8D8C8D981305C0E889F989808185FDE6
:1003F00026C0F62E0B8D10E00F5F1F4F0F731127D5
:10040000E02E8C8DE8120CC00FB607FCFACFE889FD
:10041000F989808185FFF5CFCE010E94C501F1CF1A
:100420008B8DFE01E80FF11DE35AFF4FF0829FB75D
:10043000F8940B8FEA89FB89808180620AC09FB79C
:10044000F894EE89FF896083E889F9898081837057
:10045000806480839FBF81E090E0DF91CF911F9106
:100460000F91FF90EF900895CF93DF93EC01888D6B
:100470008823C9F0EA89FB89808185FD05C0A889A8
:10048000B9898C9186FD0FC00FB607FCF5CF80812E
:1004900085FFF2CFA889B9898C9185FFEDCFCE0178
:1004A0000E94C501E7CFDF91CF91089580E090E0F1
:1004B000892B29F00E94BB0181110C940000089542
:1004C0000E94E3081F920F920FB60F9211242F93F0
:1004D0003F938F939F93AF93BF938091C30190916C
:1004E000C401A091C501B091C6013091C20123E0C1
:1004F000230F2D3720F40196A11DB11D05C026E85C
:10050000230F0296A11DB11D2093C2018093C30148
:100510009093C401A093C501B093C6018091BE0120
:100520009091BF01A091C001B091C1010196A11DA0
:10053000B11D8093BE019093BF01A093C001B09301
:10054000C101BF91AF919F918F913F912F910F90DA
:100550000FBE0F901F9018951F920F920FB60F921B
:1005600011242F933F934F935F936F937F938F93B8
:100570009F93AF93BF93EF93FF9382E191E00E942B
:10058000C501FF91EF91BF91AF919F918F917F91A5
:100590006F915F914F913F912F910F900FBE0F90F0
:1005A0001F9018951F920F920FB60F9211242F9340
:1005B0008F939F93EF93FF93E0912201F09123019A
:1005C0008081E0912801F091290182FD12C0908183
:1005D00080912B018F5F8F7320912C01821751F036
:1005E000E0912B01F0E0EE5EFE4F958F80932B01A2
:1005F00001C08081FF91EF919F918F912F910F907A
:100600000FBE0F901F9018951F920F920FB60F926A
:100610001124CF92DF92EF92FF922F933F934F934B
:100620005F936F937F938F939F93AF93BF93EF935A
:10063000FF932091BA013091BB014091BC015091D0
:10064000BD016091B3017091B4018091B5019091A9
:10065000B6010E94E1056B017C0120E030E04AEF29
:1006600056E40E94AC0787FF09C0C092B301D09244
:10067000B401E092B501F092B60108C01092B30146
:100680001092B4011092B5011092B601FF91EF9152
:10069000BF91AF919F918F917F916F915F914F919A
:1006A0003F912F91FF90EF90DF90CF900F900FBE72
:1006B0000F901F901895789484B5826084BD84B59E
:1006C000816084BD85B5826085BD85B5816085BD4D
:1006D00080916E00816080936E0010928100809105
:1006E000810082608093810080918100816080938D
:1006F0008100809180008160809380008091B100B2
:1007000084608093B1008091B00081608093B000DC
:1007100080917A00846080937A0080917A00826070
:1007200080937A0080917A00816080937A00809132
:100730007A00806880937A001092C10061E086E0C0
:100740000E943E0160E08EE00E943E0160E085E094
:100750000E943E01E0912201F091230182E080831A
:10076000E0911E01F0911F011082E0912001F091B3
:1007700021018FEC808310922A01E0912601F091F3
:10078000270186E08083E0912401F091250180819A
:1007900080618083E0912401F0912501808188604F
:1007A0008083E0912401F09125018081806880831D
:1007B000E0912401F091250180818F7D8083F89460
:1007C0001092800010928100109285001092840097
:1007D00083EF91E09093890080938800809181005D
:1007E0008860809381008091810081608093810086
:1007F00080916F00826080936F00789404E010E035
:10080000812C912C80E8A82E8FEBB82E412C512CF6
:1008100090E8692E9FE3792E22ED222E20E0322EE1
:1008200080E480937C0080917A00806480937A00D9
:1008300080917A0086FDFCCFA091780080917900AC
:10084000B0E0B82B2AE030E00E94C2082FEF33E07E
:1008500040E050E00E949005CA01B9010E94FC06E8
:100860006093BA017093BB018093BC019093BD016A
:100870000E941A01019749F4C091B901D0E00E9489
:100880001A01C817D90709F011C10E941A0121E005
:10089000892B09F420E02093B9018091B701909150
:1008A000B80181309105C9F094F4892B09F08BC00F
:1008B00020E030E04AEF56E46091B3017091B4015A
:1008C0008091B5019091B6010E9452066AC08230B3
:1008D0009105F1F00397F1F176C020E030E04AEFA6
:1008E00056E46091B3017091B4018091B50190918B
:1008F000B6010E9452069B01AC010E94E1052BED5E
:100900003FE049E450E40E94B1070E941E0853C032
:1009100020E030E04AE756E46091B3017091B40101
:100920008091B5019091B6010E944D0687FF09C0E4
:100930004092AF015092B0016092B1017092B20149
:1009400042C08092AF019092B001A092B101B092EA
:10095000B20139C020E030E04AE756E46091B301CB
:100960007091B4018091B5019091B6010E94E005AB
:100970006B017C0120E030E0A9010E94AC07181651
:100980003CF42FE632E143E05BE3C701B60107C068
:10099000C701B60190582FE632E143E05BE30E94C5
:1009A000B1079B01AC010E94E10520E030E040E886
:1009B0005FE30E94E0056093AF017093B001809304
:1009C000B1019093B20120E030E040E05FE360913C
:1009D000AF017091B0018091B1019091B2010E947C
:1009E000B10720E030E040E05FE30E94E10520E055
:1009F00030E04FE753E40E94B1070E94C4066B0148
:100A00007C01EB0161E086E00E943E01209711F439
:100A100080E004C0CF3FD10521F481E00E94EE00C8
:100A200042C0F10184918330F9F048F48130B9F08B
:100A30008230A1F584B5806284BDC8BC34C08730E3
:100A4000E9F0883019F1843049F5809180008062A6
:100A500080938000D0928B00C0928A0024C084B51D
:100A6000806884BDC7BC1FC080918000806880936F
:100A70008000D0928900C092880015C08091B0009B
:100A800080688093B000C092B3000DC08091B00028
:100A900080628093B000C092B40005C0C038D10518
:100AA0000CF0BBCFB5CF0E945602BACE8091B701F1
:100AB0009091B8010196B8010E94AE089093B801D8
:100AC0008093B701E2CEE2E1F1E01382128288EE78
:100AD00093E0A0E0B0E084839583A683B78384E0AD
:100AE00091E09183808385EC90E09587848784EC06
:100AF00090E09787868780EC90E0918B808B81ECEB
:100B000090E0938B828B82EC90E0958B848B86ECCB
:100B100090E0978B868B118E128E138E148E089513
:100B2000052E97FB1EF400940E94A70557FD07D0E1
:100B30000E94AF0507FC03D04EF40C94A705509516
:100B40004095309521953F4F4F4F5F4F08959095B9
:100B50008095709561957F4F8F4F9F4F0895A1E2CB
:100B60001A2EAA1BBB1BFD010DC0AA1FBB1FEE1F27
:100B7000FF1FA217B307E407F50720F0A21BB30B72
:100B8000E40BF50B661F771F881F991F1A9469F7EE
:100B900060957095809590959B01AC01BD01CF014A
:100BA0000895A29FB001B39FC001A39F700D811D46
:100BB0001124911DB29F700D811D1124911D089566
:100BC0005058BB27AA270E94F8050C9472070E9470
:100BD000640738F00E946B0720F039F49F3F19F446
:100BE00026F40C9461070EF4E095E7FB0C945B0788
:100BF000E92F0E94830758F3BA1762077307840727
:100C0000950720F079F4A6F50C94A5070EF4E0956D
:100C10000B2EBA2FA02D0B01B90190010C01CA01B6
:100C2000A0011124FF27591B99F0593F50F4503E61
:100C300068F11A16F040A22F232F342F4427585F53
:100C4000F3CF469537952795A795F0405395C9F76B
:100C50007EF41F16BA0B620B730B840BBAF0915023
:100C6000A1F0FF0FBB1F661F771F881FC2F70EC0C2
:100C7000BA0F621F731F841F48F487957795679595
:100C8000B795F7959E3F08F0B0CF9395880F08F081
:100C90009927EE0F9795879508950E94370708F4D6
:100CA00081E008950E9466060C9472070E946B070B
:100CB00058F00E94640740F029F45F3F29F00C943B
:100CC0005B0751110C94A6070C9461070E948307DF
:100CD00068F39923B1F3552391F3951B550BBB276B
:100CE000AA2762177307840738F09F5F5F4F220FB0
:100CF000331F441FAA1FA9F335D00E2E3AF0E0E8A7
:100D000032D091505040E695001CCAF72BD0FE2FF0
:100D100029D0660F771F881FBB1F26173707480784
:100D2000AB07B0E809F0BB0B802DBF01FF2793583C
:100D30005F4F3AF09E3F510578F00C945B070C949E
:100D4000A6075F3FE4F3983ED4F3869577956795C1
:100D5000B795F7959F5FC9F7880F911D9695879571
:100D600097F90895E1E0660F771F881FBB1F621790
:100D700073078407BA0720F0621B730B840BBA0B4E
:100D8000EE1F88F7E09508950E94CB066894B11194
:100D90000C94A60708950E948B0788F09F5798F03F
:100DA000B92F9927B751B0F0E1F0660F771F881F70
:100DB000991F1AF0BA95C9F714C0B13091F00E948A
:100DC000A507B1E008950C94A507672F782F882711
:100DD000B85F39F0B93FCCF3869577956795B395B1
:100DE000D9F73EF490958095709561957F4F8F4F20
:100DF0009F4F0895E89409C097FB3EF49095809525
:100E0000709561957F4F8F4F9F4F9923A9F0F92FD0
:100E100096E9BB279395F695879577956795B7954E
:100E2000F111F8CFFAF4BB0F11F460FF1BC06F5F34
:100E30007F4F8F4F9F4F16C0882311F096E911C046
:100E4000772321F09EE8872F762F05C0662371F067
:100E500096E8862F70E060E02AF09A95660F771F7B
:100E6000881FDAF7880F9695879597F90895990F57
:100E70000008550FAA0BE0E8FEEF16161706E80764
:100E8000F907C0F012161306E407F50798F0621B85
:100E9000730B840B950B39F40A2661F0232B242B5A
:100EA000252B21F408950A2609F4A140A6958FEF79
:100EB000811D811D089597F99F6780E870E060E0CB
:100EC00008959FEF80EC089500240A9416161706E3
:100ED00018060906089500240A941216130614062B
:100EE00005060895092E0394000C11F4882352F08E
:100EF000BB0F40F4BF2B11F460FF04C06F5F7F4F46
:100F00008F4F9F4F089557FD9058440F551F59F02C
:100F10005F3F71F04795880F97FB991F61F09F3FE6
:100F200079F087950895121613061406551FF2CF0F
:100F30004695F1DF08C0161617061806991FF1CF5F
:100F400086957105610508940895E894BB27662786
:100F50007727CB0197F908950E94370708F48FEFA0
:100F600008950E94C4070C9472070E94640738F029
:100F70000E946B0720F0952311F00C945B070C94F2
:100F8000610711240C94A6070E94830770F3959FB4
:100F9000C1F3950F50E0551F629FF001729FBB2770
:100FA000F00DB11D639FAA27F00DB11DAA1F649F0C
:100FB0006627B00DA11D661F829F2227B00DA11DBF
:100FC000621F739FB00DA11D621F839FA00D611D45
:100FD000221F749F3327A00D611D231F849F600D66
:100FE000211D822F762F6A2F11249F5750409AF08F
:100FF000F1F088234AF0EE0FFF1FBB1F661F771F1B
:10100000881F91505040A9F79E3F510580F00C94E5
:101010005B070C94A6075F3FE4F3983ED4F38695F4
:1010200077956795B795F795E7959F5FC1F7FE2B85
:10103000880F911D9695879597F908959F930E9423
:1010400028080F9007FCEE5F0C9451080C94610780
:101050000E948B07D8F3E894E0E0BB279F57F0F09D
:101060002AED3FE049EC06C0EE0FBB0F661F771F6D
:10107000881F28F0B23A62077307840728F0B25A33
:10108000620B730B840BE3959A9572F7803830F4FA
:101090009A95BB0F661F771F881FD2F790480C9454
:1010A0006708EF93E0FF07C0A2EA2AED3FE049ECB2
:1010B0005FEB0E94F8050E9472070F90039401FCF9
:1010C0009058E8E6F0E00C9473089F3F31F091509F
:1010D00020F4879577956795B795880F911D96951C
:1010E000879597F908959F938F937F936F93FF93BD
:1010F000EF939B01AC010E94B107EF91FF910E9419
:1011000087082F913F914F915F910C94B107DF9326
:10111000CF931F930F93FF92EF92DF927B018C018D
:10112000689406C0DA2EEF010E94C407FE01E8941D
:10113000A5912591359145915591A6F3EF010E9416
:10114000F805FE019701A801DA9469F7DF90EF90A6
:10115000FF900F911F91CF91DF91089597FB072E7C
:1011600016F4009407D077FD09D00E94C90807FC47
:1011700005D03EF4909581959F4F089570956195A7
:101180007F4F08950E94D105B7FF0895821B930BEE
:101190000895AA1BBB1B51E107C0AA1FBB1FA617BE
:1011A000B70710F0A61BB70B881F991F5A95A9F710
:1011B00080959095BC01CD010895EE0FFF1F05901D
:1011C000F491E02D099481E090E0F8940C94E80803
:0411D000F894FFCFC1
:1011D40000000000E7019B007E013402AF018D0195
:0211E400A10167
:00000001FF
