:100000000C9471000C9499000C9499000C94990034
:100010000C9499000C9499000C9499000C949900FC
:100020000C9499000C9499000C9499000C948F03F3
:100030000C9499000C9499000C9499000C949900DC
:100040000C94ED020C9499000C945D030C9437030E
:100050000C9499000C9499000C9499000C949900BC
:100060000C9499000C94990005A84CCDB2D44EB9CB
:100070003836A9020C50B9918688083CA6AAAA2A4B
:10008000BE000000803F00000000240027002A007E
:1000900000000000250028002B00000000002300C5
:1000A00026002900040404040404040402020202D9
:1000B000020203030303030301020408102040802B
:1000C00001020408102001020408102000000008AA
:1000D000000201000003040700000000000000000F
:1000E000760711241FBECFEFD8E0DEBFCDBF11E0F1
:1000F000A0E0B1E0E4E0F6E102C005900D92A2328A
:10010000B107D9F721E0A2E2B1E001C01D92AA3FF8
:10011000B207E1F710E0C1E7D0E004C02197FE018B
:100120000E94F50AC037D107C9F70E940D040C944C
:10013000000B0C940000833081F028F4813099F09A
:100140008230A1F008958730A9F08830B9F084306A
:10015000D1F4809180008F7D03C0809180008F77E3
:1001600080938000089584B58F7702C084B58F7D19
:1001700084BD08958091B0008F7703C08091B00056
:100180008F7D8093B0000895CF93DF93E4EDF0E08E
:100190008491E0ECF0E0D491ECEAF0E0C491CC235F
:1001A00091F081110E949B00EC2FF0E0EE0FFF1FF9
:1001B000E656FF4FA591B491EC91ED2381E090E0DC
:1001C00021F480E002C080E090E0DF91CF910895BB
:1001D0001F93CF93DF93282F30E0F901E453FF4FB3
:1001E0008491F901E854FF4FD491F901EC55FF4F88
:1001F000C491CC23C1F0162F81110E949B00EC2FDB
:10020000F0E0EE0FFF1FE057FF4FA591B4919FB7AD
:10021000F894111104C08C91D095D82302C0EC91B0
:10022000DE2BDC939FBFDF91CF911F910895CF9379
:10023000DF9390E0FC01E854FF4F2491FC01EC5562
:10024000FF4F8491882361F190E0880F991FFC0192
:10025000EA57FF4FC591D491FC01E057FF4FA5919C
:10026000B491611109C09FB7F894888120958223C9
:100270008883EC912E230BC0623061F49FB7F89411
:100280008881322F309583238883EC912E2B2C93F9
:100290009FBF06C08FB7F894E8812E2B28838FBFAD
:1002A000DF91CF9108951F93CF93DF93182FEB0128
:1002B00061E00E941701209711F460E004C0CF3F75
:1002C000D10539F461E0812FDF91CF911F910C941A
:1002D000E800E12FF0E0E453FF4FE491E330F9F060
:1002E00048F4E130B9F0E230A1F584B5806284BD14
:1002F000C8BD34C0E730E9F0E83019F1E43049F521
:1003000080918000806280938000D0938B00C093A6
:100310008A0024C084B5806884BDC7BD1FC0809199
:100320008000806880938000D0938900C09388000B
:1003300015C08091B00080688093B000C093B30076
:100340000DC08091B00080628093B000C093B40073
:1003500005C0C038D1050CF0B5CFAFCFDF91CF913C
:100360001F9108958E3008F08E50877080648093BE
:100370007C0080917A00806480937A0080917A007A
:1003800086FDFCCF809178002091790090E0922B3F
:100390000895CF92DF92EF92FF920F931F93CF9326
:1003A000DF936C017A018B01C0E0D0E0CE15DF0550
:1003B00081F0D8016D918D01D601ED91FC910190F4
:1003C000F081E02DC6010995892B11F02196EECF21
:1003D0007E01C701DF91CF911F910F91FF90EF90A8
:1003E000DF90CF900895089580E090E00895FC019B
:1003F000538D448D252F30E0842F90E0821B930B8A
:10040000541710F0CF96089501970895FC01918D2F
:10041000828D981761F0828DDF01A80FB11D5D9666
:100420008C91928D9F5F9F73928F90E008958FEFD4
:100430009FEF0895FC01918D828D981731F0828D88
:10044000E80FF11D858D90E008958FEF9FEF0895DF
:10045000FC01918D228D892F90E0805C9F4F821B43
:1004600091098F73992708958DE591E00E942802E4
:1004700021E0892B09F420E0822F0895FC01848D6E
:10048000DF01A80FB11DA35ABF4F2C91848D90E0BE
:1004900001968F739927848FA689B7892C93A08999
:1004A000B1898C91837080648C93938D848D981323
:1004B00006C00288F389E02D80818F7D80830895B6
:1004C000EF92FF920F931F93CF93DF93EC0181E0A4
:1004D000888F9B8D8C8D981305C0E889F989808160
:1004E00085FD26C0F62E0B8D10E00F5F1F4F0F739A
:1004F0001127E02E8C8DE8120CC00FB607FCFACF46
:10050000E889F989808185FFF5CFCE010E943E02FE
:10051000F1CF8B8DFE01E80FF11DE35AFF4FF08202
:100520009FB7F8940B8FEA89FB89808180620AC0AB
:100530009FB7F894EE89FF896083E889F989808103
:100540008370806480839FBF81E090E0DF91CF91D2
:100550001F910F91FF90EF900895CF93DF93EC01DF
:10056000888D8823C9F0EA89FB89808185FD05C0D3
:10057000A889B9898C9186FD0FC00FB607FCF5CF0D
:10058000808185FFF2CFA889B9898C9185FFEDCF55
:10059000CE010E943E02E7CFDF91CF91089580E027
:1005A00090E0892B29F00E94340281110C94000004
:1005B0000895009769F0FC0101900020E9F7319758
:1005C000AF01481B590BBC018DE591E00C94C901AA
:1005D00080E090E008950E94FB0A1F920F920FB6F0
:1005E0000F9211242F933F938F939F93AF93BF93B9
:1005F0008091590190915A01A0915B01B0915C01E9
:100600003091580123E0230F2D3720F40196A11DCE
:10061000B11D05C026E8230F0296A11DB11D209330
:1006200058018093590190935A01A0935B01B093B4
:100630005C018091540190915501A0915601B091B7
:1006400057010196A11DB11D80935401909355014E
:10065000A0935601B0935701BF91AF919F918F9195
:100660003F912F910F900FBE0F901F9018951F92E2
:100670000F920FB60F9211242F933F934F935F93D6
:100680006F937F938F939F93AF93BF93EF93FF935A
:100690008DE591E00E943E02FF91EF91BF91AF91F5
:1006A0009F918F917F916F915F914F913F912F918A
:1006B0000F900FBE0F901F9018951F920F920FB6BC
:1006C0000F9211242F938F939F93EF93FF93E091B9
:1006D0006D01F0916E018081E0917301F0917401E0
:1006E00082FD12C09081809176018F5F8F7320917F
:1006F0007701821751F0E0917601F0E0E35AFE4F66
:10070000958F8093760101C08081FF91EF919F9139
:100710008F912F910F900FBE0F901F9018951F92E1
:100720000F920FB60F921124CF92DF92EF92FF92A9
:100730002F933F934F935F936F937F938F939F93E9
:10074000AF93BF93EF93FF9320914E0130914F01F0
:100750004091500150915101609126017091270103
:1007600080912801909129010E94F4076B017C017E
:1007700020E030E342EF56E40E94BF0987FF09C042
:10078000C0922601D0922701E0922801F09229011F
:1007900008C0109226011092270110922801109291
:1007A00029018091440190914501A0914601B091A9
:1007B0004701AC01BD014F5F5F4F6F4F7F4F81E03D
:1007C00090E0A0E0B0E04F3F2FEF520762077207C2
:1007D00018F480E090E0DC01840F951FA61FB71F7E
:1007E0008093440190934501A0934601B093470143
:1007F000FF91EF91BF91AF919F918F917F916F91F9
:100800005F914F913F912F91FF90EF90DF90CF90AC
:100810000F900FBE0F901F901895CF93DF93CDB719
:10082000DEB7A1970FB6F894DEBF0FBECDBF7894A8
:1008300084B5826084BD84B5816084BD85B58260E5
:1008400085BD85B5816085BD80916E008160809396
:100850006E001092810080918100826080938100FF
:10086000809181008160809381008091800081600F
:10087000809380008091B10084608093B10080916A
:10088000B00081608093B00080917A008460809392
:100890007A0080917A00826080937A0080917A0059
:1008A000816080937A0080917A00806880937A00DA
:1008B0001092C10061E085E00E94170161E086E0CE
:1008C0000E94170160E08EE00E94170160E08FE057
:1008D0000E94170160E088E00E941701E0916D011D
:1008E000F0916E0182E08083E0916901F0916A01EC
:1008F0001082E0916B01F0916C018FEC808310927B
:100900007501E0917101F091720186E08083E091C0
:100910006F01F0917001808180618083E0916F01AF
:10092000F0917001808188608083E0916F01F09187
:100930007001808180688083E0916F01F091700187
:1009400080818F7D8083F8941092800010928100C6
:10095000109285001092840085B5887F816085BDE6
:1009600083E092E0909389008093880080918100D9
:1009700088608093810080918100816080938100F4
:1009800080916F00826080936F0078948EE00E9467
:10099000B201909353018093520144E0242E312CF4
:1009A0008EE00E94B20120915201309153018217D2
:1009B000930719F18EE00E94B201BC01990F880BD8
:1009C000990B0E940F0925E83BEE4FE951E40E9484
:1009D000C40920E030EC4FE754E40E9465082AE0A7
:1009E00037ED43E25CE30E94F40760934E0170939D
:1009F0004F0180935001909351018EE00E94B2010B
:100A000090935301809352018FE00E94B201209194
:100A10004C0130914D018217930791F08FE00E94B5
:100A2000B20123E030E0DC010E94DA0A2FEF33E06C
:100A300040E050E00E94A30730934B0120934A010D
:100A40008FE00E94B20190934D0180934C010E946F
:100A5000C400019709F06EC00E94C40020914801B3
:100A6000309149018217930709F464C060914401F1
:100A70007091450180914601909147010E940D09B6
:100A800020E030E342EF56E40E94650820E030E0C9
:100A90004AE754E40E94C409209140013091410189
:100AA00040914201509143010E94F3076B017C0188
:100AB0006093400170934101809342019093430100
:100AC00000913E0110913F010115110559F020E000
:100AD00030E44CE155E4C701B6010E94BF09181685
:100AE0000CF0F4C0000F111F000F111FF801E25DA0
:100AF000FE4F1082118212821382A7019601C70154
:100B0000B6010E94390A882309F435C182E191E0D7
:100B10000E94D9028EE191E00E94D90280913E01AB
:100B200090913F010196B1010E94C60A90933F0146
:100B300080933E010E94C400909349018093480134
:100B400080914A0190914B0181309105C9F094F454
:100B5000892B09F08BC020E030E342EF56E460912E
:100B600026017091270180912801909129010E940E
:100B700065086AC082309105F1F00397F1F176C003
:100B800020E030E342EF56E46091260170912701A6
:100B900080912801909129010E9465089B01AC0178
:100BA0000E94F4072BED3FE049E450E40E94C409A1
:100BB0000E94310A53C020E030E342E756E46091DE
:100BC00026017091270180912801909129010E94AE
:100BD000600887FF05C080E090E0A0E8BFE304C0A4
:100BE00080E090E0A0E8BFEB809322019093230186
:100BF000A0932401B093250139C020E030E342E7FF
:100C000056E460912601709127018091280190910E
:100C100029010E94F3076B017C0120E030E0A9016B
:100C20000E94BF0918163CF42FE632E143E05BE373
:100C3000C701B60107C0C701B60190582FE632E1DF
:100C400043E05BE30E94C4099B01AC010E94F407EE
:100C500020E030E040E85FE30E94F3076093220168
:100C600070932301809324019093250120E030E0CC
:100C700040E05FE3609122017091230180912401A3
:100C8000909125010E94C40920E030E040E05FE33C
:100C90000E94F40720E030E04FE753E40E94C409CB
:100CA0006093220170932301809324019093250186
:100CB0000E94D7086B017C0186E00E945301B601B7
:100CC00085E00E9453010E94CF026ACEF801EE0F28
:100CD000FF1FEE0FFF1FE25DFE4FC082D182E28256
:100CE000F3822EE2822E21E0922E412C512C3201F1
:100CF000A12CB12CA016B10684F4D4012D913D9104
:100D00004D915D914D01C301B2010E94F4072B0189
:100D10003C01BFEFAB1ABB0AEDCFB8016F5F7F4F4D
:100D2000072E000C880B990B0E940F099B01AC0148
:100D3000C301B2010E94650820E030E04AE754E4B4
:100D40000E9465089B01AC0160932A0170932B01FE
:100D500080932C0190932D0160E070E080E89FE388
:100D60000E94650860934E0170934F01809350017B
:100D700090935101C2CE46015701E894B7F82FEF86
:100D80003FEF4FE75FE7C501B4010E94390A8111C7
:100D90000DC02FEF3FEF4FE75FE7C501B4010E94A1
:100DA000600818161CF486E191E0B2CE2FEF3FEFF9
:100DB0004FE75FE4C701B6010E94BF0918161CF493
:100DC0008AE191E0A5CE2FEF3FEF4FE75FECC7013F
:100DD000B6010E94600887FDF3CF20E030E0A90152
:100DE000C701B6010E94600887FF09C06DE28DE56A
:100DF00091E00E946002F7FAF094F7F8F0942AE08C
:100E000037ED43EA5BE3C701B6010E94F4074B01EB
:100E10005C010E94DE086B017C010E940D099B01B0
:100E2000AC01C501B4010E94F3072B013C0119A2DA
:100E30008E010F5D1F4F902EB12EC701B6012AE023
:100E400030E040E050E00E94C20769017A01605D35
:100E5000F80162938F01232B242B252B71F7CF01EF
:100E60000E94D9026EE28DE591E00E94600283E06B
:100E7000F82EFA94FF2009F44DCE20E030E040E255
:100E800051E4C301B2010E94C4092B013C010E943C
:100E9000DE089B0140E050E019A2092D1B2DA62E73
:100EA000C32ED42EE52ECA01B9012AE030E040E07D
:100EB00050E00E94C207605DD8016E938D0121153C
:100EC00031054105510579F7CD010E94D9026A2DFE
:100ED0007C2D8D2D9E2D0E940D099B01AC01C3011F
:100EE000B2010E94F3072B013C01C3CFEDE5F1E015
:100EF0001382128288EE93E0A0E0B0E084839583B1
:100F0000A683B78384E091E09183808385EC90E0B1
:100F10009587848784EC90E09787868780EC90E0C3
:100F2000918B808B81EC90E0938B828B82EC90E0B4
:100F3000958B848B86EC90E0978B868B118E128E2E
:100F4000138E148E0895052E97FB1EF400940E94B4
:100F5000BA0757FD07D00E94C20707FC03D04EF422
:100F60000C94BA0750954095309521953F4F4F4FBF
:100F70005F4F089590958095709561957F4F8F4F45
:100F80009F4F0895A1E21A2EAA1BBB1BFD010DC0A5
:100F9000AA1FBB1FEE1FFF1FA217B307E407F50729
:100FA00020F0A21BB30BE40BF50B661F771F881F05
:100FB000991F1A9469F760957095809590959B019B
:100FC000AC01BD01CF010895A29FB001B39FC00144
:100FD000A39F700D811D1124911DB29F700D811D65
:100FE0001124911D08955058BB27AA270E940B0871
:100FF0000C9485090E94770938F00E947E0920F040
:1010000039F49F3F19F426F40C9474090EF4E0951A
:10101000E7FB0C946E09E92F0E94960958F3BA1762
:10102000620773078407950720F079F4A6F50C94FE
:10103000B8090EF4E0950B2EBA2FA02D0B01B901C3
:1010400090010C01CA01A0011124FF27591B99F03E
:10105000593F50F4503E68F11A16F040A22F232F4A
:10106000342F4427585FF3CF469537952795A7959A
:10107000F0405395C9F77EF41F16BA0B620B730B41
:10108000840BBAF09150A1F0FF0FBB1F661F771FB2
:10109000881FC2F70EC0BA0F621F731F841F48F467
:1010A000879577956795B795F7959E3F08F0B0CFF0
:1010B0009395880F08F09927EE0F979587950895D7
:1010C0000E944A0908F481E008950E9479080C946E
:1010D00085090E947E0958F00E94770940F029F4A2
:1010E0005F3F29F00C946E0951110C94B9090C94CE
:1010F00074090E94960968F39923B1F3552391F37B
:10110000951B550BBB27AA2762177307840738F076
:101110009F5F5F4F220F331F441FAA1FA9F335D0D3
:101120000E2E3AF0E0E832D091505040E695001C87
:10113000CAF72BD0FE2F29D0660F771F881FBB1F41
:10114000261737074807AB07B0E809F0BB0B802D1F
:10115000BF01FF2793585F4F3AF09E3F510578F04B
:101160000C946E090C94B9095F3FE4F3983ED4F3F4
:10117000869577956795B795F7959F5FC9F7880F1F
:10118000911D9695879597F90895E1E0660F771F71
:10119000881FBB1F621773078407BA0720F0621B02
:1011A000730B840BBA0BEE1F88F7E09508950E942D
:1011B000DE086894B1110C94B90908950E949E0943
:1011C00088F09F5798F0B92F9927B751B0F0E1F008
:1011D000660F771F881F991F1AF0BA95C9F714C0B8
:1011E000B13091F00E94B809B1E008950C94B809AB
:1011F000672F782F8827B85F39F0B93FCCF38695F1
:1012000077956795B395D9F73EF49095809570954D
:1012100061957F4F8F4F9F4F0895E89409C097FBCA
:101220003EF490958095709561957F4F8F4F9F4FBD
:101230009923A9F0F92F96E9BB279395F695879501
:1012400077956795B795F111F8CFFAF4BB0F11F4C4
:1012500060FF1BC06F5F7F4F8F4F9F4F16C088236B
:1012600011F096E911C0772321F09EE8872F762FA1
:1012700005C0662371F096E8862F70E060E02AF0E2
:101280009A95660F771F881FDAF7880F96958795CE
:1012900097F90895990F0008550FAA0BE0E8FEEFA3
:1012A00016161706E807F907C0F012161306E4072A
:1012B000F50798F0621B730B840B950B39F40A2623
:1012C00061F0232B242B252B21F408950A2609F401
:1012D000A140A6958FEF811D811D089597F99F6705
:1012E00080E870E060E008959FEF80EC08950024AE
:1012F0000A941616170618060906089500240A947B
:1013000012161306140605060895092E0394000C00
:1013100011F4882352F0BB0F40F4BF2B11F460FF8F
:1013200004C06F5F7F4F8F4F9F4F089557FD9058B8
:10133000440F551F59F05F3F71F04795880F97FB99
:10134000991F61F09F3F79F0879508951216130653
:101350001406551FF2CF4695F1DF08C01616170682
:101360001806991FF1CF86957105610508940895B7
:10137000E894BB2766277727CB0197F908950E9449
:101380004A0908F48FEF08950E94D7090C94850943
:101390000E94770938F00E947E0920F0952311F011
:1013A0000C946E090C94740911240C94B9090E94D0
:1013B000960970F3959FC1F3950F50E0551F629FFA
:1013C000F001729FBB27F00DB11D639FAA27F00D9E
:1013D000B11DAA1F649F6627B00DA11D661F829FC5
:1013E0002227B00DA11D621F739FB00DA11D621FAA
:1013F000839FA00D611D221F749F3327A00D611DC7
:10140000231F849F600D211D822F762F6A2F1124A8
:101410009F5750409AF0F1F088234AF0EE0FFF1FDB
:10142000BB1F661F771F881F91505040A9F79E3F32
:10143000510580F00C946E090C94B9095F3FE4F3F8
:10144000983ED4F3869577956795B795F795E79588
:101450009F5FC1F7FE2B880F911D9695879597F991
:1014600008959F930E94400A0F9007FCEE5F0C9432
:10147000690A0E944A09880B990B08950C94740913
:101480000E949E09D8F3E894E0E0BB279F57F0F054
:101490002AED3FE049EC06C0EE0FBB0F661F771F39
:1014A000881F28F0B23A62077307840728F0B25AFF
:1014B000620B730B840BE3959A9572F7803830F4C6
:1014C0009A95BB0F661F771F881FD2F790480C9420
:1014D0007F0AEF93E0FF07C0A2EA2AED3FE049EC64
:1014E0005FEB0E940B080E9485090F90039401FC9A
:1014F0009058E8E6F0E00C948B0A9F3F31F0915051
:1015000020F4879577956795B795880F911D9695E7
:10151000879597F908959F938F937F936F93FF9388
:10152000EF939B01AC010E94C409EF91FF910E94CF
:101530009F0A2F913F914F915F910C94C409DF93C3
:10154000CF931F930F93FF92EF92DF927B018C0159
:10155000689406C0DA2EEF010E94D709FE01E894D4
:10156000A5912591359145915591A6F3EF010E94E2
:101570000B08FE019701A801DA9469F7DF90EF905C
:10158000FF900F911F91CF91DF91089597FB072E48
:1015900016F4009407D077FD09D00E94E10A07FCF9
:1015A00005D03EF4909581959F4F08957095619573
:1015B0007F4F08950E94E407B7FF0895821B930BA5
:1015C0000895AA1BBB1B51E107C0AA1FBB1FA6178A
:1015D000B70710F0A61BB70B881F991F5A95A9F7DC
:1015E00080959095BC01CD010895EE0FFF1F0590E9
:1015F000F491E02D099481E090E0F8940C94000BB4
:04160000F894FFCF8C
:10160400000000006002C901F701AD0228020602D1
:101614001A026E616E00696E66006F7666000D0ACE
:021624000000C4
:00000001FF
