:100000000C9471000C9499000C9499000C94990034
:100010000C9499000C9499000C9499000C949900FC
:100020000C9499000C9499000C9499000C94E5039D
:100030000C9499000C9499000C9499000C949900DC
:100040000C9443030C9499000C94B3030C948D030B
:100050000C9499000C9499000C9499000C949900BC
:100060000C9499000C94990005A84CCDB2D44EB9CB
:100070003836A9020C50B9918688083CA6AAAA2A4B
:10008000BE000000803F00000000240027002A007E
:1000900000000000250028002B00000000002300C5
:1000A00026002900040404040404040402020202D9
:1000B000020203030303030301020408102040802B
:1000C00001020408102001020408102000000008AA
:1000D000000201000003040700000000000000000F
:1000E000B50711241FBECFEFD8E0DEBFCDBF11E0B2
:1000F000A0E0B1E0E2E9F7E102C005900D92AA317B
:10010000B107D9F721E0AAE1B1E001C01D92A63FF5
:10011000B207E1F710E0C1E7D0E004C02197FE018B
:100120000E94BC0BC037D107C9F70E9463040C942E
:10013000C70B0C940000833081F028F4813099F0D3
:100140008230A1F008958730A9F08830B9F084306A
:10015000D1F4809180008F7D03C0809180008F77E3
:1001600080938000089584B58F7702C084B58F7D19
:1001700084BD08958091B0008F7703C08091B00056
:100180008F7D8093B0000895CF93DF93E8EDF0E08A
:100190008491E4ECF0E0D491E0EBF0E0C491CC2366
:1001A00091F081110E949B00EC2FF0E0EE0FFF1FF9
:1001B000E656FF4FA591B491EC91ED2381E090E0DC
:1001C00021F480E002C080E090E0DF91CF910895BB
:1001D0001F93CF93DF93282F30E0F901E453FF4FB3
:1001E0008491F901E854FF4FD491F901EC55FF4F88
:1001F000C491CC23C1F0162F81110E949B00EC2FDB
:10020000F0E0EE0FFF1FE057FF4FA591B4919FB7AD
:10021000F894111104C08C91D095D82302C0EC91B0
:10022000DE2BDC939FBFDF91CF911F910895CF9379
:10023000DF9390E0FC01E854FF4F2491FC01EC5562
:10024000FF4F8491882361F190E0880F991FFC0192
:10025000EA57FF4FC591D491FC01E057FF4FA5919C
:10026000B491611109C09FB7F894888120958223C9
:100270008883EC912E230BC0623061F49FB7F89411
:100280008881322F309583238883EC912E2B2C93F9
:100290009FBF06C08FB7F894E8812E2B28838FBFAD
:1002A000DF91CF9108951F93CF93DF93182FEB0128
:1002B00061E00E941701209711F460E004C0CF3F75
:1002C000D10539F461E0812FDF91CF911F910C941A
:1002D000E800E12FF0E0E453FF4FE491E330F9F060
:1002E00048F4E130B9F0E230A1F584B5806284BD14
:1002F000C8BD34C0E730E9F0E83019F1E43049F521
:1003000080918000806280938000D0938B00C093A6
:100310008A0024C084B5806884BDC7BD1FC0809199
:100320008000806880938000D0938900C09388000B
:1003300015C08091B00080688093B000C093B30076
:100340000DC08091B00080628093B000C093B40073
:1003500005C0C038D1050CF0B5CFAFCFDF91CF913C
:100360001F9108958E3008F08E50877080648093BE
:100370007C0080917A00806480937A0080917A007A
:1003800086FDFCCF809178002091790090E0922B3F
:100390000895CF92DF92EF92FF920F931F93CF9326
:1003A000DF936C017A018B01C0E0D0E0CE15DF0550
:1003B00081F0D8016D918D01D601ED91FC910190F4
:1003C000F081E02DC6010995892B11F02196EECF21
:1003D0007E01C701DF91CF911F910F91FF90EF90A8
:1003E000DF90CF900895089580E090E00895FC019B
:1003F000538D448D252F30E0842F90E0821B930B8A
:10040000541710F0CF96089501970895FC01918D2F
:10041000828D981761F0828DDF01A80FB11D5D9666
:100420008C91928D9F5F9F73928F90E008958FEFD4
:100430009FEF0895FC01918D828D981731F0828D88
:10044000E80FF11D858D90E008958FEF9FEF0895DF
:10045000FC01918D228D892F90E0805C9F4F821B43
:1004600091098F739927089589E591E00E942802E8
:1004700021E0892B09F420E0822F0895FC01848D6E
:10048000DF01A80FB11DA35ABF4F2C91848D90E0BE
:1004900001968F739927848FA689B7892C93A08999
:1004A000B1898C91837080648C93938D848D981323
:1004B00006C00288F389E02D80818F7D80830895B6
:1004C000EF92FF920F931F93CF93DF93EC0181E0A4
:1004D000888F9B8D8C8D981305C0E889F989808160
:1004E00085FD26C0F62E0B8D10E00F5F1F4F0F739A
:1004F0001127E02E8C8DE8120CC00FB607FCFACF46
:10050000E889F989808185FFF5CFCE010E943E02FE
:10051000F1CF8B8DFE01E80FF11DE35AFF4FF08202
:100520009FB7F8940B8FEA89FB89808180620AC0AB
:100530009FB7F894EE89FF896083E889F989808103
:100540008370806480839FBF81E090E0DF91CF91D2
:100550001F910F91FF90EF900895CF93DF93EC01DF
:10056000888D8823C9F0EA89FB89808185FD05C0D3
:10057000A889B9898C9186FD0FC00FB607FCF5CF0D
:10058000808185FFF2CFA889B9898C9185FFEDCF55
:10059000CE010E943E02E7CFDF91CF91089580E027
:1005A00090E0892B29F00E94340281110C94000004
:1005B000089560911A0170911B0180911C01909126
:1005C0001D010E94010A20E030E342EF56E40E9440
:1005D000590920E030E04AE754E40E94B80A08953F
:1005E0008F929F92AF92BF920F931F93CF93DF93FF
:1005F000CDB7DEB7A1970FB6F894DEBF0FBECDBF63
:1006000019A2423008F44AE08E010F5D1F4F842E7C
:10061000912CA12CB12CA50194010E94B608E62FC3
:10062000B901CA0101501109EA3014F4E05D01C0BA
:10063000E95CD801EC93232B242B252B61F70115C2
:10064000110571F0F80101900020E9F73197AF0131
:10065000401B510BB80189E591E00E94C90102C01D
:1006600080E090E0A1960FB6F894DEBF0FBECDBF3C
:10067000DF91CF911F910F91BF90AF909F908F907E
:1006800008950E94C20B1F920F920FB60F92112471
:100690002F933F938F939F93AF93BF938091550177
:1006A00090915601A0915701B09158013091540199
:1006B00023E0230F2D3720F40196A11DB11D05C0A5
:1006C00026E8230F0296A11DB11D209354018093AB
:1006D000550190935601A0935701B0935801809112
:1006E000500190915101A0915201B0915301019696
:1006F000A11DB11D8093500190935101A09352010F
:10070000B0935301BF91AF919F918F913F912F91E2
:100710000F900FBE0F901F9018951F920F920FB65B
:100720000F9211242F933F934F935F936F937F9377
:100730008F939F93AF93BF93EF93FF9389E591E0DE
:100740000E943E02FF91EF91BF91AF919F918F91D7
:100750007F916F915F914F913F912F910F900FBEBD
:100760000F901F9018951F920F920FB60F921124A1
:100770002F938F939F93EF93FF93E0916901F091F3
:100780006A018081E0916F01F091700182FD12C0D9
:100790009081809172018F5F8F7320917301821716
:1007A00051F0E0917201F0E0E75AFE4F958F80938F
:1007B000720101C08081FF91EF919F918F912F91E4
:1007C0000F900FBE0F901F9018951F920F920FB6AB
:1007D0000F921124CF92DF92EF92FF922F933F93CB
:1007E0004F935F936F937F938F939F93AF93BF9339
:1007F000EF93FF9320914A0130914B0140914C01BE
:1008000050914D016091260170912701809128013E
:10081000909129010E94E8086B017C0120E030E3FF
:1008200042EF56E40E94B30A87FF09C0C092260136
:10083000D0922701E0922801F092290108C010927D
:10084000260110922701109228011092290180910F
:100850001A0190911B01A0911C01B0911D01AC01E6
:10086000BD014F5F5F4F6F4F7F4F81E090E0A0E091
:10087000B0E04F3F2FEF52076207720718F480E095
:1008800090E0DC01840F951FA61FB71F80931A010B
:1008900090931B01A0931C01B0931D01FF91EF9158
:1008A000BF91AF919F918F917F916F915F914F9188
:1008B0003F912F91FF90EF90DF90CF900F900FBE60
:1008C0000F901F901895789484B5826084BD84B58C
:1008D000816084BD85B5826085BD85B5816085BD3B
:1008E00080916E00816080936E00109281008091F3
:1008F000810082608093810080918100816080937B
:100900008100809180008160809380008091B1009F
:1009100084608093B1008091B00081608093B000CA
:1009200080917A00846080937A0080917A0082605E
:1009300080937A0080917A00816080937A00809120
:100940007A00806880937A001092C10061E085E0AF
:100950000E94170161E086E00E94170161E08BE0D0
:100960000E94170160E08EE00E94170160E08FE0B6
:100970000E94170160E080E10E94170162E08CE0B4
:100980000E941701E0916901F0916A0182E0808381
:10099000E0916501F09166011082E0916701F091AC
:1009A00068018FEC808310927101E0916D01F091EC
:1009B0006E0186E08083E0916B01F0916C01808193
:1009C00080618083E0916B01F0916C01808188608F
:1009D0008083E0916B01F0916C018081806880835D
:1009E000E0916B01F0916C0180818F7D808380E0CC
:1009F0000E94B201BC01990F880B990B611571051A
:100A00008105910511F00E947B08F89410928000F6
:100A100010928100109285001092840085B5887F25
:100A2000816085BD83E092E0909389008093880087
:100A30008091810088608093810080918100816035
:100A40008093810080916F00826080936F00789422
:100A50008EE00E94B20190934F0180934E01882452
:100A60008A9463E0962EA12CB12C7EE3C72E71E010
:100A7000D72E8EE00E94B2012FE130E0DC010E940F
:100A8000B50BA50194010E94840880914E019091BC
:100A90004F018217930719F18EE00E94B201BC0149
:100AA000990F880B990B0E94030A25E83BEE4FE94A
:100AB00051E40E94B80A20E030EC4FE754E40E9471
:100AC00059092AE037ED43E25CE30E94E8086093AD
:100AD0004A0170934B0180934C0190934D018EE03D
:100AE0000E94B2012FE130E0DC010E94B50BA501AC
:100AF00094010E94840830934F0120934E018FE0AF
:100B00000E94B20120914801309149018217930758
:100B100081F08FE00E94B20125E030E0DC010E940C
:100B2000B50BA50194010E948408309347012093DE
:100B300046018FE00E94B2019093490180934801E1
:100B40000E94C400892B09F05EC00E94C40020915D
:100B50004401309145018217930709F454C0C091B4
:100B60004201D09143012097A9F00E94D90220911F
:100B70003E0130913F0140914001509141010E945E
:100B8000E70820E030E84BE355E40E94B30A18166A
:100B90000CF064C11092430110924201EAE2F1E0CC
:100BA00080E090E0A0E8BFEB81939193A193B19393
:100BB000CE16DF06A9F70E94D90260932A0170932E
:100BC0002B0180932C0190932D01109226011092FD
:100BD000270110922801109229010E94D9026093E6
:100BE0003E0170933F0180934001909341018091B9
:100BF000420190914301843091052CF40196909329
:100C00004301809342010E94C40090934501809368
:100C100044014090460150904701052C000C6608A5
:100C2000770877FE0EC06DE289E591E00E946002D0
:100C300066277727CB0164197509860997094AE069
:100C400003C04AE0C301B2010E94F00242E050E05A
:100C500066E171E089E591E00E94C9018091460159
:100C60009091470182309105A1F134F4009711F180
:100C7000019709F495C0BEC08430910509F490C075
:100C80000CF45AC0059709F0B5C00E942D0828EC55
:100C900030E040E050E00E94840864567109810908
:100CA000910924E630E040E050E00E948408CA0147
:100CB000B90196C020E030E342EF56E4609126018E
:100CC0007091270180912801909129010E94590972
:100CD0005CC020E030E342EF56E460912601709161
:100CE000270180912801909129010E9459092B0127
:100CF0003C0120E030E0A9010E94B30A20E030E08E
:100D000040E05FE387FD05C0C301B2010E94E8082F
:100D100004C0C301B2010E94E7080E94CB09DC01B4
:100D2000CB01880F991FAA1FBB1FBC01CD016150C9
:100D300071098109910954C020E030E342EF56E483
:100D400060912601709127018091280190912901DD
:100D50000E9459099B01AC010E94E80820E030E0A4
:100D600040E85FE30E94E7082B013C0120E030E00F
:100D7000A9010E94B30A18162CF4A3019201C30121
:100D8000B20105C0C301B20190589B01AC010E94A1
:100D9000E80820E030E040E85FE30E94E70822C076
:100DA00020E030E342EF56E4609126017091270184
:100DB00080912801909129010E9459099B01AC0161
:100DC0000E94E8082BED3FE049E450E40E94B80A95
:100DD0000E94250B20E030E0A9010E94E80802C033
:100DE0000E94030A60931E0170931F0180932001EB
:100DF0009093210120E030E040E05FE360911E012C
:100E000070911F0180912001909121010E94B80AE8
:100E100020E030E040E05FE30E94E80820E030E0BE
:100E20004FE753E40E94B80A60931E0170931F01BC
:100E300080932001909321010E94CB092B013C015A
:100E40008BE00E945301B20185E00E945301B20180
:100E500086E00E9453010E94CF020BCE8E01000F4C
:100E6000111F000F111FF801E65DFE4F20E030E07A
:100E700040E85FEB60817181828193810E94540917
:100E8000811165C00E94D9029E01220F331F220FDB
:100E9000331FD901AA5DBE4F7D012D913D914D912A
:100EA0005C910E94E708F7016083718382839383DA
:100EB0000E94D902F801E65DFE4F60837183828350
:100EC00093835AE2E52E51E0F52E412C512C32014C
:100ED00000E010E00C171D077CF4D7012D913D9127
:100EE0004D915D917D01C301B2010E94E8082B0183
:100EF0003C010F5F1F4FEECFBE01DD0F880B990B3A
:100F00000E94030A9B01AC01C301B2010E9459096E
:100F100020E030E04AE754E40E9459099B01AC010B
:100F20006093220170932301809324019093250103
:100F300060E070E080E89FE30E94590960934A01F5
:100F400070934B0180934C0190934D0146CEEAE2A1
:100F5000F1E084819581A681B78181939193A193DA
:100F6000B193CE16DF06A9F78DCFE9E5F1E0138244
:100F7000128288EE93E0A0E0B0E084839583A6839C
:100F8000B78388E091E09183808385EC90E095873A
:100F9000848784EC90E09787868780EC90E0918B43
:100FA000808B81EC90E0938B828B82EC90E0958B30
:100FB000848B86EC90E0978B868B118E128E138E2D
:100FC000148E08958F929F92AF92BF92CF92DF922C
:100FD000EF92FF92CF93DF93EC01688179818A8150
:100FE0009B81611571058105910521F464E279ED1C
:100FF0008BE597E02DE133EF41E050E00E9484085B
:1010000049015A019B01AC01A7EAB1E40E94A3087F
:101010006B017C01ACEEB4EFA50194010E94B10814
:10102000DC01CB018C0D9D1DAE1DBF1DB7FF03C0A4
:101030000197A109B04888839983AA83BB83BC0127
:10104000CD019F77DF91CF91FF90EF90DF90CF9010
:10105000BF90AF909F908F9008958F929F92AF9284
:10106000BF92CF92DF92EF92FF9260910001709158
:1010700001018091020190910301611571058105C3
:10108000910521F464E279ED8BE597E02DE133EFF2
:1010900041E050E00E94840849015A019B01AC01E3
:1010A000A7EAB1E40E94A3086B017C01ACEEB4EFA7
:1010B000A50194010E94B108DC01CB018C0D9D1D9E
:1010C000AE1DBF1DB7FF03C00197A109B0488093B3
:1010D000000190930101A0930201B0930301BC01B0
:1010E000CD019F77FF90EF90DF90CF90BF90AF90B2
:1010F0009F908F90089560930001709301018093F9
:101100000201909303010895052E97FB1EF40094AD
:101110000E949B0857FD07D00E94B60807FC03D029
:101120004EF40C949B0850954095309521953F4F77
:101130004F4F5F4F089590958095709561957F4FC3
:101140008F4F9F4F08950E94D808A59F900DB49F80
:10115000900DA49F800D911D11240895B7FF0C944C
:10116000A3080E94A308821B930B0895A1E21A2EE4
:10117000AA1BBB1BFD010DC0AA1FBB1FEE1FFF1F3B
:10118000A217B307E407F50720F0A21BB30BE40B8B
:10119000F50B661F771F881F991F1A9469F76095D2
:1011A0007095809590959B01AC01BD01CF0108958C
:1011B000A29FB001B39FC001A39F700D811D112498
:1011C000911DB29F700D811D1124911D08955058DD
:1011D000BB27AA270E94FF080C94790A0E946B0A79
:1011E00038F00E94720A20F039F49F3F19F426F477
:1011F0000C94680A0EF4E095E7FB0C94620AE92F60
:101200000E948A0A58F3BA17620773078407950782
:1012100020F079F4A6F50C94AC0A0EF4E0950B2EB0
:10122000BA2FA02D0B01B90190010C01CA01A00138
:101230001124FF27591B99F0593F50F4503E68F193
:101240001A16F040A22F232F342F4427585FF3CFD4
:10125000469537952795A795F0405395C9F77EF4A5
:101260001F16BA0B620B730B840BBAF09150A1F0EE
:10127000FF0FBB1F661F771F881FC2F70EC0BA0F74
:10128000621F731F841F48F4879577956795B795FC
:10129000F7959E3F08F0B0CF9395880F08F09927F7
:1012A000EE0F9795879508950E943E0A08F481E015
:1012B00008950E946D090C94790A0E94720A58F0F0
:1012C0000E946B0A40F029F45F3F29F00C94620AF7
:1012D00051110C94AD0A0C94680A0E948A0A68F3B2
:1012E0009923B1F3552391F3951B550BBB27AA27DF
:1012F00062177307840738F09F5F5F4F220F331F19
:10130000441FAA1FA9F335D00E2E3AF0E0E832D0E0
:1013100091505040E695001CCAF72BD0FE2F29D0E3
:10132000660F771F881FBB1F261737074807AB07B5
:10133000B0E809F0BB0B802DBF01FF2793585F4F2A
:101340003AF09E3F510578F00C94620A0C94AD0A75
:101350005F3FE4F3983ED4F3869577956795B7950C
:10136000F7959F5FC9F7880F911D9695879597F917
:101370000895E1E0660F771F881FBB1F6217730790
:101380008407BA0720F0621B730B840BBA0BEE1FA5
:1013900088F7E09508950E94D2096894B1110C94E1
:1013A000AD0A08950E94920A88F09F5798F0B92FCD
:1013B0009927B751B0F0E1F0660F771F881F991F8A
:1013C0001AF0BA95C9F714C0B13091F00E94AC0A76
:1013D000B1E008950C94AC0A672F782F8827B85F86
:1013E00039F0B93FCCF3869577956795B395D9F7E2
:1013F0003EF490958095709561957F4F8F4F9F4FEC
:101400000895E89409C097FB3EF4909580957095F7
:1014100061957F4F8F4F9F4F9923A9F0F92F96E940
:10142000BB279395F695879577956795B795F111B5
:10143000F8CFFAF4BB0F11F460FF1BC06F5F7F4F52
:101440008F4F9F4F16C0882311F096E911C0772364
:1014500021F09EE8872F762F05C0662371F096E86D
:10146000862F70E060E02AF09A95660F771F881F3C
:10147000DAF7880F9695879597F90895990F0008E0
:10148000550FAA0BE0E8FEEF16161706E807F90756
:10149000C0F012161306E407F50798F0621B730BF1
:1014A000840B950B39F40A2661F0232B242B252B72
:1014B00021F408950A2609F4A140A6958FEF811D15
:1014C000811D089597F99F6780E870E060E00895B6
:1014D0009FEF80EC089500240A941616170618064C
:1014E0000906089500240A94121613061406050628
:1014F0000895092E0394000C11F4882352F0BB0FB9
:1015000040F4BF2B11F460FF04C06F5F7F4F8F4F1B
:101510009F4F089557FD9058440F551F59F05F3F56
:1015200071F04795880F97FB991F61F09F3F79F005
:1015300087950895121613061406551FF2CF469587
:10154000F1DF08C0161617061806991FF1CF869509
:101550007105610508940895E894BB2766277727ED
:10156000CB0197F908950E943E0A08F48FEF089581
:101570000E94CB0A0C94790A0E946B0A38F00E94F0
:10158000720A20F0952311F00C94620A0C94680AF8
:1015900011240C94AD0A0E948A0A70F3959FC1F33E
:1015A000950F50E0551F629FF001729FBB27F00D11
:1015B000B11D639FAA27F00DB11DAA1F649F662766
:1015C000B00DA11D661F829F2227B00DA11D621FB5
:1015D000739FB00DA11D621F839FA00D611D221F6F
:1015E000749F3327A00D611D231F849F600D211D53
:1015F000822F762F6A2F11249F5750409AF0F1F0D6
:1016000088234AF0EE0FFF1FBB1F661F771F881F3E
:1016100091505040A9F79E3F510580F00C94620A0A
:101620000C94AD0A5F3FE4F3983ED4F3869577952A
:101630006795B795F795E7959F5FC1F7FE2B880FE4
:10164000911D9695879597F908959F930E942F0B6A
:101650000F9007FCEE5F0C94580B0C94680A0E94E4
:10166000920AD8F3E894E0E0BB279F57F0F02AED08
:101670003FE049EC06C0EE0FBB0F661F771F881FC7
:1016800028F0B23A62077307840728F0B25A620B57
:10169000730B840BE3959A9572F7803830F49A9522
:1016A000BB0F661F771F881FD2F790480C946E0BF4
:1016B000EF93E0FF07C0A2EA2AED3FE049EC5FEBC1
:1016C0000E94FF080E94790A0F90039401FC905831
:1016D000E8E6F0E00C947A0B9F3F31F0915020F453
:1016E000879577956795B795880F911D96958795FE
:1016F00097F908959F938F937F936F93FF93EF9341
:101700009B01AC010E94B80AEF91FF910E948E0BE1
:101710002F913F914F915F910C94B80ADF93CF9333
:101720001F930F93FF92EF92DF927B018C016894DD
:1017300006C0DA2EEF010E94CB0AFE01E894A591C3
:101740002591359145915591A6F3EF010E94FF082F
:10175000FE019701A801DA9469F7DF90EF90FF90FE
:101760000F911F91CF91DF9108950E94D808B7FF84
:101770000895821B930B0895EE0FFF1F0590F491BF
:10178000E02D099481E090E0F8940C94C70BF89454
:02179000FFCF89
:1017920001000000000000006002C901F701AD0273
:0A17A200280206021A020D0A0000D8
:00000001FF
