:100000000C9471000C9499000C9499000C94990034
:100010000C9499000C9499000C9499000C949900FC
:100020000C9499000C9499000C9499000C94A603DC
:100030000C9499000C9499000C9499000C949900DC
:100040000C9404030C9499000C9474030C944E03C8
:100050000C9499000C9499000C9499000C949900BC
:100060000C9499000C94990005A84CCDB2D44EB9CB
:100070003836A9020C50B9918688083CA6AAAA2A4B
:10008000BE000000803F00000000240027002A007E
:1000900000000000250028002B00000000002300C5
:1000A00026002900040404040404040402020202D9
:1000B000020203030303030301020408102040802B
:1000C00001020408102001020408102000000008AA
:1000D000000201000003040700000000000000000F
:1000E000A80711241FBECFEFD8E0DEBFCDBF11E0BF
:1000F000A0E0B1E0E8E6F6E102C005900D92A23280
:10010000B107D9F722E0A2E2B1E001C01D92A2300E
:10011000B207E1F710E0C1E7D0E004C02197FE018B
:100120000E94270BC037D107C9F70E9424040C9402
:10013000320B0C940000833081F028F4813099F068
:100140008230A1F008958730A9F08830B9F084306A
:10015000D1F4809180008F7D03C0809180008F77E3
:1001600080938000089584B58F7702C084B58F7D19
:1001700084BD08958091B0008F7703C08091B00056
:100180008F7D8093B0000895CF93DF93E8EDF0E08A
:100190008491E4ECF0E0D491E0EBF0E0C491CC2366
:1001A00091F081110E949B00EC2FF0E0EE0FFF1FF9
:1001B000E656FF4FA591B491EC91ED2381E090E0DC
:1001C00021F480E002C080E090E0DF91CF910895BB
:1001D0001F93CF93DF93282F30E0F901E453FF4FB3
:1001E0008491F901E854FF4FD491F901EC55FF4F88
:1001F000C491CC23C1F0162F81110E949B00EC2FDB
:10020000F0E0EE0FFF1FE057FF4FA591B4919FB7AD
:10021000F894111104C08C91D095D82302C0EC91B0
:10022000DE2BDC939FBFDF91CF911F910895CF9379
:10023000DF9390E0FC01E854FF4F2491FC01EC5562
:10024000FF4F8491882361F190E0880F991FFC0192
:10025000EA57FF4FC591D491FC01E057FF4FA5919C
:10026000B491611109C09FB7F894888120958223C9
:100270008883EC912E230BC0623061F49FB7F89411
:100280008881322F309583238883EC912E2B2C93F9
:100290009FBF06C08FB7F894E8812E2B28838FBFAD
:1002A000DF91CF9108951F93CF93DF93182FEB0128
:1002B00061E00E941701209711F460E004C0CF3F75
:1002C000D10539F461E0812FDF91CF911F910C941A
:1002D000E800E12FF0E0E453FF4FE491E330F9F060
:1002E00048F4E130B9F0E230A1F584B5806284BD14
:1002F000C8BD34C0E730E9F0E83019F1E43049F521
:1003000080918000806280938000D0938B00C093A6
:100310008A0024C084B5806884BDC7BD1FC0809199
:100320008000806880938000D0938900C09388000B
:1003300015C08091B00080688093B000C093B30076
:100340000DC08091B00080628093B000C093B40073
:1003500005C0C038D1050CF0B5CFAFCFDF91CF913C
:100360001F9108958E3008F08E50877080648093BE
:100370007C0080917A00806480937A0080917A007A
:1003800086FDFCCF809178002091790090E0922B3F
:100390000895CF92DF92EF92FF920F931F93CF9326
:1003A000DF936C017A018B01C0E0D0E0CE15DF0550
:1003B00081F0D8016D918D01D601ED91FC910190F4
:1003C000F081E02DC6010995892B11F02196EECF21
:1003D0007E01C701DF91CF911F910F91FF90EF90A8
:1003E000DF90CF900895089580E090E00895FC019B
:1003F000538D448D252F30E0842F90E0821B930B8A
:10040000541710F0CF96089501970895FC01918D2F
:10041000828D981761F0828DDF01A80FB11D5D9666
:100420008C91928D9F5F9F73928F90E008958FEFD4
:100430009FEF0895FC01918D828D981731F0828D88
:10044000E80FF11D858D90E008958FEF9FEF0895DF
:10045000FC01918D228D892F90E0805C9F4F821B43
:1004600091098F739927089585E691E00E942802EB
:1004700021E0892B09F420E0822F0895FC01848D6E
:10048000DF01A80FB11DA35ABF4F2C91848D90E0BE
:1004900001968F739927848FA689B7892C93A08999
:1004A000B1898C91837080648C93938D848D981323
:1004B00006C00288F389E02D80818F7D80830895B6
:1004C000EF92FF920F931F93CF93DF93EC0181E0A4
:1004D000888F9B8D8C8D981305C0E889F989808160
:1004E00085FD26C0F62E0B8D10E00F5F1F4F0F739A
:1004F0001127E02E8C8DE8120CC00FB607FCFACF46
:10050000E889F989808185FFF5CFCE010E943E02FE
:10051000F1CF8B8DFE01E80FF11DE35AFF4FF08202
:100520009FB7F8940B8FEA89FB89808180620AC0AB
:100530009FB7F894EE89FF896083E889F989808103
:100540008370806480839FBF81E090E0DF91CF91D2
:100550001F910F91FF90EF900895CF93DF93EC01DF
:10056000888D8823C9F0EA89FB89808185FD05C0D3
:10057000A889B9898C9186FD0FC00FB607FCF5CF0D
:10058000808185FFF2CFA889B9898C9185FFEDCF55
:10059000CE010E943E02E7CFDF91CF91089580E027
:1005A00090E0892B29F00E94340281110C94000004
:1005B000089560912201709123018091240190910E
:1005C00025010E943F0920E030E342EF56E40E94FB
:1005D000970820E030E04AE754E40E94F6090895C5
:1005E000009769F0FC0101900020E9F73197AF0115
:1005F000481B590BBC0185E691E00C94C90180E0D1
:1006000090E008950E942D0B1F920F920FB60F924B
:1006100011242F933F938F939F93AF93BF93809118
:10062000610190916201A0916301B09164013091E8
:10063000600123E0230F2D3720F40196A11DB11D89
:1006400005C026E8230F0296A11DB11D209360016D
:100650008093610190936201A0936301B093640160
:1006600080915C0190915D01A0915E01B0915F016C
:100670000196A11DB11D80935C0190935D01A09333
:100680005E01B0935F01BF91AF919F918F913F91B8
:100690002F910F900FBE0F901F9018951F920F92E1
:1006A0000FB60F9211242F933F934F935F936F9345
:1006B0007F938F939F93AF93BF93EF93FF9385E6C1
:1006C00091E00E943E02FF91EF91BF91AF919F9107
:1006D0008F917F916F915F914F913F912F910F90EB
:1006E0000FBE0F901F9018951F920F920FB60F928A
:1006F00011242F938F939F93EF93FF93E0917501B4
:10070000F09176018081E0917B01F0917C0182FD86
:1007100012C0908180917E018F5F8F7320917F0145
:10072000821751F0E0917E01F0E0EB59FE4F958F7A
:1007300080937E0101C08081FF91EF919F918F9105
:100740002F910F900FBE0F901F9018951F920F9230
:100750000FB60F921124CF92DF92EF92FF922F9358
:100760003F934F935F936F937F938F939F93AF9339
:10077000BF93EF93FF932091560130915701409121
:1007800058015091590160912A0170912B0180917B
:100790002C0190912D010E9426086B017C0120E024
:1007A00030E342EF56E40E94F10987FF09C0C0928E
:1007B0002A01D0922B01E0922C01F0922D0108C069
:1007C00010922A0110922B0110922C0110922D01EF
:1007D0008091220190912301A0912401B0912501E3
:1007E000AC01BD014F5F5F4F6F4F7F4F81E090E0E5
:1007F000A0E0B0E04F3F2FEF52076207720718F4F6
:1008000080E090E0DC01840F951FA61FB71F809346
:10081000220190932301A0932401B0932501FF911D
:10082000EF91BF91AF919F918F917F916F915F9168
:100830004F913F912F91FF90EF90DF90CF900F90CD
:100840000FBE0F901F901895CF93DF93CDB7DEB7F3
:10085000A1970FB6F894DEBF0FBECDBF789484B5D4
:10086000826084BD84B5816084BD85B5826085BDAC
:1008700085B5816085BD80916E00816080936E003A
:10088000109281008091810082608093810080912C
:1008900081008160809381008091800081608093DD
:1008A00080008091B10084608093B1008091B0009D
:1008B00081608093B00080917A00846080937A0098
:1008C00080917A00826080937A0080917A008160C2
:1008D00080937A0080917A00806880937A001092E9
:1008E000C10061E085E00E94170161E086E00E949E
:1008F000170160E08EE00E94170160E08FE00E9427
:10090000170162E08CE00E941701E0917501F091FF
:10091000760182E08083E0917101F0917201108292
:10092000E0917301F09174018FEC808310927D014E
:10093000E0917901F0917A0186E08083E09177017E
:10094000F0917801808180618083E0917701F0915E
:100950007801808188608083E0917701F09178014F
:10096000808180688083E0917701F09178018081B7
:100970008F7D8083F89410928000109281001092F5
:1009800085001092840085B5887F816085BD83E0F5
:1009900092E0909389008093880080918100886024
:1009A000809381008091810081608093810080919B
:1009B0006F00826080936F0078948EE00E94B20195
:1009C00090935B0180935A018EE00E94B2012FE167
:1009D00030E0DC010E940C0B2FEF33E040E050E0F0
:1009E0000E94D50780915A0190915B01821793076D
:1009F00009F4EFC08EE00E94B201BC01990F880B90
:100A0000990B0E94410925E83BEE4FE951E40E9411
:100A1000F60920E030EC4FE754E40E9497082AE002
:100A200037ED43E25CE30E9426086B017C014B0139
:100A30005C01609356017093570180935801909325
:100A400059019B01AC010E946B0A882319F082E1D5
:100A500091E01AC026013701E89477F82FEF3FEFB5
:100A60004FE75FE7C301B2010E946B0A81110FC01B
:100A70002FEF3FEF4FE75FE7C301B2010E949208FB
:100A800018162CF486E191E00E94F0029EC02FEF30
:100A90003FEF4FE75FE4C701B6010E94F109181666
:100AA0001CF48AE191E0F0CF2FEF3FEF4FE75FECCE
:100AB000C701B6010E94920887FDF3CF20E030E025
:100AC000A901C701B6010E94920887FF0BC06DE221
:100AD00085E691E00E94600246015701B7FAB094A2
:100AE000B7F8B0942AE037ED43EA5BE3C501B401FF
:100AF0000E9426086B017C010E9410094B015C01D9
:100B00000E943F099B01AC01C701B6010E94250864
:100B10002B013C0119A27E0181E2E80EF11C1701B4
:100B2000C501B4012AE030E040E050E00E94F40743
:100B300049015A01605DD7016E937D01232B242B5F
:100B4000252B71F7CD010E94F0026EE285E691E05F
:100B50000E94600213E01150C1F120E030E040E259
:100B600051E4C301B2010E94F6096B017C010E94AD
:100B700010099B0140E050E019A23101962EA32EEE
:100B8000B42E052FCA01B9012AE030E040E050E060
:100B90000E94F407605DF30162933F012115310566
:100BA0004105510579F7CF010E94F002692D7A2D98
:100BB0008B2D902F0E943F099B01AC01C701B6010C
:100BC0000E9425082B013C01C6CF8EE191E00E94D6
:100BD000F0028EE00E94B2012FE130E0DC010E94C1
:100BE0000C0B2FEF33E040E050E00E94D50730932C
:100BF0005B0120935A018FE00E94B20120915401C1
:100C0000309155018217930791F08FE00E94B20155
:100C100023E030E0DC010E940C0B2FEF33E040E0DA
:100C200050E00E94D50730935301209352018FE08A
:100C30000E94B20190935501809354010E94C40018
:100C4000892B09F04FC00E94C400209150013091BF
:100C500051018217930709F011C144C0B7016F5FBA
:100C60007F4F072E000C880B990B0E9441099B01B6
:100C7000AC01C501B4010E94970820E030E04AE7CA
:100C800054E40E9497089B01AC0160932E0170937D
:100C90002F01809330019093310160E070E080E893
:100CA0009FE30E94970860935601709357018093C9
:100CB0005801909359010E94D90260934A017093A0
:100CC0004B0180934C0190934D0180914E01909186
:100CD0004F01019666E070E00E94F80A90934F0180
:100CE00080934E010E94C400909351018093500163
:100CF000809152019091530181309105C9F094F493
:100D0000892B09F08BC020E030E342EF56E460917C
:100D10002A0170912B0180912C0190912D010E944C
:100D200097086AC082309105F1F00397F1F176C01F
:100D300020E030E342EF56E460912A0170912B01EC
:100D400080912C0190912D010E9497089B01AC018C
:100D50000E9426082BED3FE049E450E40E94F6098A
:100D60000E94630A53C020E030E342E756E46091FA
:100D70002A0170912B0180912C0190912D010E94EC
:100D8000920887FF05C080E090E0A0E8BFE304C0C0
:100D900080E090E0A0E8BFEB8093260190932701CC
:100DA000A0932801B093290139C020E030E342E745
:100DB00056E460912A0170912B0180912C01909151
:100DC0002D010E9425086B017C0120E030E0A90183
:100DD0000E94F10918163CF42FE632E143E05BE390
:100DE000C701B60107C0C701B60190582FE632E12E
:100DF00043E05BE30E94F6099B01AC010E942608D8
:100E000020E030E040E85FE30E942508609326017F
:100E100070932701809328019093290120E030E00E
:100E200040E05FE3609126017091270180912801E5
:100E3000909129010E94F60920E030E040E05FE354
:100E40000E94260820E030E04FE753E40E94F609B4
:100E500060932601709327018093280190932901C4
:100E60000E9409096B017C0186E00E945301B601D2
:100E700085E00E9453010E94CF02A6CDE0904E0172
:100E8000F0904F01E114F104B1F00E94D9024B013E
:100E90005C0120914A0130914B0140914C015091ED
:100EA0004D010E94250820E030E84BE355E40E9404
:100EB000F10918167CF410924F0110924E010E9415
:100EC000D90260933201709333018093340190937F
:100ED0003501F1CE8701000F111F000F111F025DB8
:100EE0001E4FD8012D913D914D915C91C501B401EA
:100EF0000E942508F80160837183828393830E9496
:100F0000D902F701EE0FFF1FEE0FFF1FEE5CFE4F41
:100F1000608371838283938332E3C32E31E0D32EC7
:100F2000812C912C540100E010E00E151F050CF0EF
:100F300095CED6012D913D914D915D916D01C501EB
:100F4000B4010E9426084B015C010F5F1F4FEDCFDB
:100F5000E5E6F1E01382128288EE93E0A0E0B0E0D3
:100F600084839583A683B78384E091E09183808313
:100F700085EC90E09587848784EC90E0978786875E
:100F800080EC90E0918B808B81EC90E0938B828B56
:100F900082EC90E0958B848B86EC90E0978B868B2F
:100FA000118E128E138E148E0895052E97FB1EF44B
:100FB00000940E94EC0757FD07D00E94F40707FC3D
:100FC00003D04EF40C94EC07509540953095219544
:100FD0003F4F4F4F5F4F0895909580957095619565
:100FE0007F4F8F4F9F4F0895A1E21A2EAA1BBB1B64
:100FF000FD010DC0AA1FBB1FEE1FFF1FA217B307E5
:10100000E407F50720F0A21BB30BE40BF50B661FFA
:10101000771F881F991F1A9469F7609570958095BE
:1010200090959B01AC01BD01CF010895A29FB00135
:10103000B39FC001A39F700D811D1124911DB29F0C
:10104000700D811D1124911D08955058BB27AA27AA
:101050000E943D080C94B7090E94A90938F00E942B
:10106000B00920F039F49F3F19F426F40C94A60936
:101070000EF4E095E7FB0C94A009E92F0E94C80943
:1010800058F3BA17620773078407950720F079F4BD
:10109000A6F50C94EA090EF4E0950B2EBA2FA02DBC
:1010A0000B01B90190010C01CA01A0011124FF2715
:1010B000591B99F0593F50F4503E68F11A16F04010
:1010C000A22F232F342F4427585FF3CF469537950F
:1010D0002795A795F0405395C9F77EF41F16BA0BD4
:1010E000620B730B840BBAF09150A1F0FF0FBB1F82
:1010F000661F771F881FC2F70EC0BA0F621F731FCB
:10110000841F48F4879577956795B795F7959E3F27
:1011100008F0B0CF9395880F08F09927EE0F9795B8
:10112000879508950E947C0908F481E008950E9443
:10113000AB080C94B7090E94B00958F00E94A909A5
:1011400040F029F45F3F29F00C94A00951110C9450
:10115000EB090C94A6090E94C80968F39923B1F31E
:10116000552391F3951B550BBB27AA2762177307CD
:10117000840738F09F5F5F4F220F331F441FAA1F61
:10118000A9F335D00E2E3AF0E0E832D0915050401D
:10119000E695001CCAF72BD0FE2F29D0660F771FCB
:1011A000881FBB1F261737074807AB07B0E809F0B1
:1011B000BB0B802DBF01FF2793585F4F3AF09E3F36
:1011C000510578F00C94A0090C94EB095F3FE4F30F
:1011D000983ED4F3869577956795B795F7959F5F79
:1011E000C9F7880F911D9695879597F90895E1E0C5
:1011F000660F771F881FBB1F621773078407BA0724
:1012000020F0621B730B840BBA0BEE1F88F7E0957E
:1012100008950E9410096894B1110C94EB09089587
:101220000E94D00988F09F5798F0B92F9927B7519D
:10123000B0F0E1F0660F771F881F991F1AF0BA957A
:10124000C9F714C0B13091F00E94EA09B1E00895E5
:101250000C94EA09672F782F8827B85F39F0B93FD7
:10126000CCF3869577956795B395D9F73EF490952D
:101270008095709561957F4F8F4F9F4F0895E894AB
:1012800009C097FB3EF490958095709561957F4FCE
:101290008F4F9F4F9923A9F0F92F96E9BB2793957C
:1012A000F695879577956795B795F111F8CFFAF48C
:1012B000BB0F11F460FF1BC06F5F7F4F8F4F9F4FBD
:1012C00016C0882311F096E911C0772321F09EE81B
:1012D000872F762F05C0662371F096E8862F70E081
:1012E00060E02AF09A95660F771F881FDAF7880F5B
:1012F0009695879597F90895990F0008550FAA0BB1
:10130000E0E8FEEF16161706E807F907C0F0121618
:101310001306E407F50798F0621B730B840B950B1B
:1013200039F40A2661F0232B242B252B21F4089570
:101330000A2609F4A140A6958FEF811D811D08950D
:1013400097F99F6780E870E060E008959FEF80EC78
:10135000089500240A94161617061806090608951B
:1013600000240A9412161306140605060895092E81
:101370000394000C11F4882352F0BB0F40F4BF2BF0
:1013800011F460FF04C06F5F7F4F8F4F9F4F089530
:1013900057FD9058440F551F59F05F3F71F0479526
:1013A000880F97FB991F61F09F3F79F0879508950B
:1013B000121613061406551FF2CF4695F1DF08C02A
:1013C000161617061806991FF1CF86957105610547
:1013D00008940895E894BB2766277727CB0197F9EF
:1013E00008950E947C0908F48FEF08950E94090A6D
:1013F0000C94B7090E94A90938F00E94B00920F0A6
:10140000952311F00C94A0090C94A60911240C94B6
:10141000EB090E94C80970F3959FC1F3950F50E046
:10142000551F629FF001729FBB27F00DB11D639F96
:10143000AA27F00DB11DAA1F649F6627B00DA11D3C
:10144000661F829F2227B00DA11D621F739FB00DE2
:10145000A11D621F839FA00D611D221F749F332752
:10146000A00D611D231F849F600D211D822F762FEB
:101470006A2F11249F5750409AF0F1F088234AF0C8
:10148000EE0FFF1FBB1F661F771F881F9150504034
:10149000A9F79E3F510580F00C94A0090C94EB092C
:1014A0005F3FE4F3983ED4F3869577956795B795BB
:1014B000F795E7959F5FC1F7FE2B880F911D9695D5
:1014C000879597F908959F930E94720A0F9007FCE1
:1014D000EE5F0C949B0A0E947C09880B990B08957F
:1014E0000C94A6090E94D009D8F3E894E0E0BB2749
:1014F0009F57F0F02AED3FE049EC06C0EE0FBB0F1E
:10150000661F771F881F28F0B23A620773078407A7
:1015100028F0B25A620B730B840BE3959A9572F71D
:10152000803830F49A95BB0F661F771F881FD2F75B
:1015300090480C94B10AEF93E0FF07C0A2EA2AEDAD
:101540003FE049EC5FEB0E943D080E94B7090F9015
:10155000039401FC9058E8E6F0E00C94BD0A9F3F2C
:1015600031F0915020F4879577956795B795880F5E
:10157000911D9695879597F908959F938F937F93E3
:101580006F93FF93EF939B01AC010E94F609EF91DB
:10159000FF910E94D10A2F913F914F915F910C943E
:1015A000F609DF93CF931F930F93FF92EF92DF9291
:1015B0007B018C01689406C0DA2EEF010E94090AB3
:1015C000FE01E894A5912591359145915591A6F399
:1015D000EF010E943D08FE019701A801DA9469F726
:1015E000DF90EF90FF900F911F91CF91DF910895C1
:1015F00097FB072E16F4009407D077FD09D00E94C0
:10160000130B07FC05D03EF4909581959F4F0895EC
:10161000709561957F4F08950E941608B7FF089551
:10162000821B930B0895AA1BBB1B51E107C0AA1F85
:10163000BB1FA617B70710F0A61BB70B881F991F73
:101640005A95A9F780959095BC01CD010895EE0FAC
:10165000FF1F0590F491E02D099481E090E0F8944B
:081660000C94320BF894FFCF4B
:10166800000000006002C901F701AD02280206026D
:101678001A026E616E00696E66006F7666000D0A6A
:02168800000060
:00000001FF
