:100000000C9470000C9482000C9482000C9482007A
:100010000C9482000C9482000C9482000C94820058
:100020000C9482000C9482000C9482000C94FD01CC
:100030000C9482000C9482000C9482000C94820038
:100040000C94B3010C9482000C9482000C948200F6
:100050000C9482000C9482000C9482000C94820018
:100060000C9482000C94820005A84CCDB2D44EB9F9
:100070003836A9020C50B9918688083CA6AAAA2A4B
:10008000BE000000803F00000000240027002A007E
:1000900000000000250028002B00000000002300C5
:1000A00026002900040404040404040402020202D9
:1000B000020203030303030301020408102040802B
:1000C00001020408102001020408102000000008AA
:1000D000000201000003040700000000000000000F
:1000E00011241FBECFEFD8E0DEBFCDBF21E0A0E0DE
:1000F000B1E001C01D92AF32B207E1F70E94540295
:100100000C9484070C94000080E480937C00809120
:100110007A00806480937A0080917A0086FDFCCF1B
:10012000809178002091790090E0922B089583309F
:1001300081F028F4813099F08230A1F00895873061
:10014000A9F08830B9F08430D1F4809180008F7D9F
:1001500003C0809180008F7780938000089584B5DC
:100160008F7702C084B58F7D84BD08958091B000E3
:100170008F7703C08091B0008F7D8093B000089589
:10018000CF93DF93282F30E0F901E453FF4F8491A0
:10019000F901E854FF4FD491F901EC55FF4FC49198
:1001A000CC2391F081110E949700EC2FF0E0EE0F2C
:1001B000FF1FE656FF4FA591B491EC91ED2381E02E
:1001C00090E021F480E002C080E090E0DF91CF91E8
:1001D00008951F93CF93DF93282F30E0F901E45364
:1001E000FF4F8491F901E854FF4FD491F901EC5588
:1001F000FF4FC491CC23C1F0162F81110E949700AC
:10020000EC2FF0E0EE0FFF1FE057FF4FA591B491E8
:100210009FB7F894111104C08C91D095D82302C0D7
:10022000EC91DE2BDC939FBFDF91CF911F9108955E
:10023000CF93DF9390E0FC01E854FF4F2491FC0141
:10024000EC55FF4F8491882361F190E0880F991F4E
:10025000FC01EA57FF4FC591D491FC01E057FF4FD5
:10026000A591B491611109C09FB7F8948881209538
:1002700082238883EC912E230BC0623061F49FB7F8
:10028000F8948881322F309583238883EC912E2B2C
:100290002C939FBF06C08FB7F894E8812E2B28833C
:1002A0008FBFDF91CF9108951F93CF93DF93182FC6
:1002B000EB0161E00E941801209711F460E004C096
:1002C000CF3FD10539F461E0812FDF91CF911F91AC
:1002D0000C94E900E12FF0E0E453FF4FE491E330A8
:1002E000F9F048F4E130B9F0E230A1F584B580626C
:1002F00084BDC8BD34C0E730E9F0E83019F1E4301E
:1003000049F580918000806280938000D0938B00BB
:10031000C0938A0024C084B5806884BDC7BD1FC057
:1003200080918000806880938000D0938900C09382
:10033000880015C08091B00080688093B000C093A1
:10034000B3000DC08091B00080628093B000C09374
:10035000B40005C0C038D1050CF0B5CFAFCFDF91E8
:10036000CF911F9108951F920F920FB60F921124F3
:100370002F933F938F939F93AF93BF9380912B01C4
:1003800090912C01A0912D01B0912E0130912A0164
:1003900023E0230F2D3720F40196A11DB11D05C0C8
:1003A00026E8230F0296A11DB11D20932A018093F8
:1003B0002B0190932C01A0932D01B0932E018091DD
:1003C000260190912701A0912801B0912901019661
:1003D000A11DB11D8093260190932701A0932801B0
:1003E000B0932901BF91AF919F918F913F912F9130
:1003F0000F900FBE0F901F9018951F920F920FB67F
:100400000F921124CF92DF92EF92FF922F933F939E
:100410004F935F936F937F938F939F93AF93BF930C
:10042000EF93FF932091200130912101409122010F
:1004300050912301609104017091050180910601A2
:10044000909107010E948F046B017C0120E030E055
:100450004AEF56E40E945A0687FF09C0C092040181
:10046000D0920501E0920601F092070108C01092B7
:100470000401109205011092060110920701FF91EC
:10048000EF91BF91AF919F918F917F916F915F910C
:100490004F913F912F91FF90EF90DF90CF900F9071
:1004A0000FBE0F901F901895CF93DF9300D000D010
:1004B000CDB7DEB7789484B5826084BD84B58160A1
:1004C00084BD85B5826085BD85B5816085BD80911F
:1004D0006E00816080936E00109281008091810097
:1004E000826080938100809181008160809381008F
:1004F000809180008160809380008091B100846051
:100500008093B1008091B00081608093B0008091B1
:100510007A00846080937A0080917A008260809370
:100520007A0080917A00816080937A0080917A00CD
:10053000806880937A001092C10061E085E00E949B
:10054000180161E086E00E94180160E08EE00E94E0
:10055000180160E087E00E941801F8941092800072
:1005600010928100109285001092840085B5887FDA
:10057000816085BD83EF91E090938900809388002E
:1005800080918100886080938100809181008160EA
:100590008093810080916F00826080936F007894D7
:1005A0000E948400909325018093240134E0232E3F
:1005B000312C412C512C40E8642E4FE3742E0E94C4
:1005C000840020912401309125018217930711F1B5
:1005D0000E948400BC01990F880B990B0E94AA0508
:1005E00025E83BEE4FE951E40E945F0620E030EC45
:1005F0004FE754E40E9400052AE037ED43E25CE354
:100600000E948F0460932001709321018093220146
:10061000909323010E9484009093250180932401EC
:1006200087E00E94C000019739F480911E019091EB
:100630001F01019709F050C187E00E94C00090930C
:100640001F0180931E0188E00E94C000019709F0FD
:100650006CC080911A0190911B01019709F465C04B
:10066000E0911801F0911901FC83EB831E161F061F
:100670000CF03FC10B811C81000F111F000F111FD7
:10068000085F1E4FEB81FC81EE0FFF1FEE0FFF1F77
:10069000EC5FFE4F208131814281538160912001C6
:1006A0007091210180912201909123010E948E047A
:1006B000D8016D937D938D939C931397E8E0F1E0BF
:1006C000FA83E98300E010E02B813C814901330F7C
:1006D000AA08BB08A981BA81CD90DD90ED90FD906C
:1006E000BA83A983C501B4010E94AA059B01AC018C
:1006F000C701B6010E9400050F5F1F4FEB81FC810F
:10070000E017F10739F7609320017093210180937E
:100710002201909323018B819C810196B1010E945B
:100720005C07909319018093180188E00E94C00033
:1007300090931B0180931A0180911C0190911D01DF
:1007400081309105D1F094F4892B09F090C020E01C
:1007500030E04AEF56E46091040170910501809108
:100760000601909107010E9400056FC0823091053B
:10077000F9F0039709F442C07AC020E030E04AEF74
:1007800056E46091040170910501809106019091F9
:1007900007010E9400059B01AC010E948F042BED14
:1007A0003FE049E450E40E945F060E94CC0657C037
:1007B00020E030E04AE756E46091040170910501C1
:1007C00080910601909107010E94FB0487FF09C0F8
:1007D0004092000150920101609202017092030167
:1007E00046C080E090E0A0E8BFEB809300019093CA
:1007F0000101A0930201B093030139C020E030E071
:100800004AE756E460910401709105018091060168
:10081000909107010E948E046B017C0120E030E082
:10082000A9010E945A0618163CF42FE632E143E073
:100830005BE3C701B60107C0C701B60190582FE6B8
:1008400032E143E05BE30E945F069B01AC010E9442
:100850008F0420E030E040E85FE30E948E04609364
:10086000000170930101809302019093030120E045
:1008700030E040E05FE36091000170910101809100
:100880000201909103010E945F0620E030E040E009
:100890005FE30E948F0420E030E04FE753E40E94C2
:1008A0005F066093000170930101809302019093B1
:1008B00003010E9472056B017C0186E00E945401D5
:1008C000B60185E00E945401A0E0B0E0AB2B09F432
:1008D00076CE0E94000073CE80911C0190911D0184
:1008E0000196B1010E945C0790931D0180931C0149
:1008F000A3CEEB81FC81EE0FFF1FEE0FFF1FE85F21
:10090000FE4F8091200190912101A0912201B09190
:10091000230180839183A283B383FDCE5058BB27EC
:10092000AA270E94A6040C9420060E94120638F002
:100930000E94190620F039F49F3F19F426F40C9414
:100940000F060EF4E095E7FB0C940906E92F0E94D0
:10095000310658F3BA17620773078407950720F02A
:1009600079F4A6F50C9453060EF4E0950B2EBA2FED
:10097000A02D0B01B90190010C01CA01A0011124A5
:10098000FF27591B99F0593F50F4503E68F11A1651
:10099000F040A22F232F342F4427585FF3CF4695E2
:1009A00037952795A795F0405395C9F77EF41F1604
:1009B000BA0B620B730B840BBAF09150A1F0FF0FCE
:1009C000BB1F661F771F881FC2F70EC0BA0F621FBA
:1009D000731F841F48F4879577956795B795F795AA
:1009E0009E3F08F0B0CF9395880F08F09927EE0F3F
:1009F0009795879508950E94E50508F481E008958C
:100A00000E9414050C9420060E94190658F00E94BA
:100A1000120640F029F45F3F29F00C9409065111A9
:100A20000C9454060C940F060E94310668F3992327
:100A3000B1F3552391F3951B550BBB27AA276217DA
:100A40007307840738F09F5F5F4F220F331F441FE7
:100A5000AA1FA9F335D00E2E3AF0E0E832D091501B
:100A60005040E695001CCAF72BD0FE2F29D0660F08
:100A7000771F881FBB1F261737074807AB07B0E84B
:100A800009F0BB0B802DBF01FF2793585F4F3AF051
:100A90009E3F510578F00C9409060C9454065F3F74
:100AA000E4F3983ED4F3869577956795B795F795D7
:100AB0009F5FC9F7880F911D9695879597F90895BF
:100AC000E1E0660F771F881FBB1F6217730784075B
:100AD000BA0720F0621B730B840BBA0BEE1F88F76A
:100AE000E09508950E9479056894B1110C9454061C
:100AF00008950E94390688F09F5798F0B92F9927DA
:100B0000B751B0F0E1F0660F771F881F991F1AF0F8
:100B1000BA95C9F714C0B13091F00E945306B1E004
:100B200008950C945306672F782F8827B85F39F003
:100B3000B93FCCF3869577956795B395D9F73EF491
:100B400090958095709561957F4F8F4F9F4F089539
:100B5000E89409C097FB3EF4909580957095619557
:100B60007F4F8F4F9F4F9923A9F0F92F96E9BB270D
:100B70009395F695879577956795B795F111F8CF89
:100B8000FAF4BB0F11F460FF1BC06F5F7F4F8F4FF4
:100B90009F4F16C0882311F096E911C0772321F0EA
:100BA0009EE8872F762F05C0662371F096E8862F82
:100BB00070E060E02AF09A95660F771F881FDAF7D9
:100BC000880F9695879597F90895990F0008550F06
:100BD000AA0BE0E8FEEF16161706E807F907C0F0C3
:100BE00012161306E407F50798F0621B730B840BCB
:100BF000950B39F40A2661F0232B242B252B21F4A5
:100C000008950A2609F4A140A6958FEF811D811D44
:100C1000089597F99F6780E870E060E008959FEF7E
:100C200080EC089500240A94161617061806090683
:100C3000089500240A941216130614060506089552
:100C4000092E0394000C11F4882352F0BB0F40F4DA
:100C5000BF2B11F460FF04C06F5F7F4F8F4F9F4F1A
:100C6000089557FD9058440F551F59F05F3F71F09C
:100C70004795880F97FB991F61F09F3F79F0879503
:100C80000895121613061406551FF2CF4695F1DF8C
:100C900008C0161617061806991FF1CF869571051C
:100CA000610508940895E894BB2766277727CB0150
:100CB00097F908950E94E50508F48FEF08950E94C2
:100CC00072060C9420060E94120638F00E94190643
:100CD00020F0952311F00C9409060C940F061124B2
:100CE0000C9454060E94310670F3959FC1F3950F42
:100CF00050E0551F629FF001729FBB27F00DB11DA0
:100D0000639FAA27F00DB11DAA1F649F6627B00D2F
:100D1000A11D661F829F2227B00DA11D621F739F18
:100D2000B00DA11D621F839FA00D611D221F749F26
:100D30003327A00D611D231F849F600D211D822F6D
:100D4000762F6A2F11249F5750409AF0F1F0882394
:100D50004AF0EE0FFF1FBB1F661F771F881F9150C1
:100D60005040A9F79E3F510580F00C9409060C9461
:100D700054065F3FE4F3983ED4F3869577956795E4
:100D8000B795F795E7959F5FC1F7FE2B880F911DEB
:100D90009695879597F908959F930E94D6060F9090
:100DA00007FCEE5F0C94FF060C940F060E943906B8
:100DB000D8F3E894E0E0BB279F57F0F02AED3FE03E
:100DC00049EC06C0EE0FBB0F661F771F881F28F087
:100DD000B23A62077307840728F0B25A620B730BAA
:100DE000840BE3959A9572F7803830F49A95BB0F8F
:100DF000661F771F881FD2F790480C941507EF9352
:100E0000E0FF07C0A2EA2AED3FE049EC5FEB0E9459
:100E1000A6040E9420060F90039401FC9058E8E677
:100E2000F0E00C9421079F3F31F0915020F487951A
:100E300077956795B795880F911D9695879597F942
:100E400008959F938F937F936F93FF93EF939B01ED
:100E5000AC010E945F06EF91FF910E9435072F9130
:100E60003F914F915F910C945F06DF93CF931F9357
:100E70000F93FF92EF92DF927B018C01689406C082
:100E8000DA2EEF010E947206FE01E894A5912591E9
:100E9000359145915591A6F3EF010E94A604FE01FC
:100EA0009701A801DA9469F7DF90EF90FF900F9116
:100EB0001F91CF91DF91089597FB072E16F40094B0
:100EC00007D077FD09D00E94700707FC05D03EF4DB
:100ED000909581959F4F0895709561957F4F0895E6
:100EE000AA1BBB1B51E107C0AA1FBB1FA617B70750
:100EF00010F0A61BB70B881F991F5A95A9F780956C
:0C0F00009095BC01CD010895F894FFCF3E
:00000001FF
